{
	"contracts/MyVariables.sol": {
		"MyVariables": {
			"abi": [
				{
					"inputs": [],
					"name": "myFunc",
					"outputs": [],
					"stateMutability": "view",
					"type": "function"
				},
				{
					"inputs": [],
					"name": "number",
					"outputs": [
						{
							"internalType": "uint256",
							"name": "",
							"type": "uint256"
						}
					],
					"stateMutability": "view",
					"type": "function"
				}
			],
			"devdoc": {
				"author": "Caio Pignatari",
				"details": "Cuidado segundo contrato desenvolvido ",
				"kind": "dev",
				"methods": {},
				"title": "Contrato teste caio",
				"version": 1
			},
			"evm": {
				"assembly": "    /* \"contracts/MyVariables.sol\":214:628  contract MyVariables {... */\n  mstore(0x40, 0x80)\n    /* \"contracts/MyVariables.sol\":265:267  20 */\n  0x14\n    /* \"contracts/MyVariables.sol\":241:267  uint256 public number = 20 */\n  0x00\n  sstore\n    /* \"contracts/MyVariables.sol\":314:318  true */\n  0x01\n    /* \"contracts/MyVariables.sol\":292:318  bool private paused = true */\n  dup1\n  sload\n  not(0xff)\n  and\n  dup2\n  or\n  swap1\n  sstore\n    /* \"contracts/MyVariables.sol\":367:382  block.timestamp */\n  timestamp\n    /* \"contracts/MyVariables.sol\":343:382  uint256 internal time = block.timestamp */\n  0x02\n  sstore\n    /* \"contracts/MyVariables.sol\":214:628  contract MyVariables {... */\n  callvalue\n  dup1\n  iszero\n  tag_1\n  jumpi\n  0x00\n  dup1\n  revert\ntag_1:\n  pop\n  dataSize(sub_0)\n  dup1\n  dataOffset(sub_0)\n  0x00\n  codecopy\n  0x00\n  return\nstop\n\nsub_0: assembly {\n        /* \"contracts/MyVariables.sol\":214:628  contract MyVariables {... */\n      mstore(0x40, 0x80)\n      callvalue\n      dup1\n      iszero\n      tag_1\n      jumpi\n      0x00\n      dup1\n      revert\n    tag_1:\n      pop\n      jumpi(tag_2, lt(calldatasize, 0x04))\n      shr(0xe0, calldataload(0x00))\n      dup1\n      0x7eed0172\n      eq\n      tag_3\n      jumpi\n      dup1\n      0x8381f58a\n      eq\n      tag_4\n      jumpi\n    tag_2:\n      0x00\n      dup1\n      revert\n        /* \"contracts/MyVariables.sol\":432:625  function myFunc() public view {... */\n    tag_3:\n      stop\n        /* \"contracts/MyVariables.sol\":241:267  uint256 public number = 20 */\n    tag_4:\n      tag_7\n      sload(0x00)\n      dup2\n      jump\n    tag_7:\n      mload(0x40)\n        /* \"#utility.yul\":160:185   */\n      swap1\n      dup2\n      mstore\n        /* \"#utility.yul\":148:150   */\n      0x20\n        /* \"#utility.yul\":133:151   */\n      add\n        /* \"contracts/MyVariables.sol\":241:267  uint256 public number = 20 */\n      mload(0x40)\n      dup1\n      swap2\n      sub\n      swap1\n      return\n\n    auxdata: 0xa2646970667358221220335eb6250cb89d16ad56beabc14f65e74eb17e1d660d7f4b26aff51716bdd84364736f6c63430008070033\n}\n",
				"bytecode": {
					"linkReferences": {},
					"object": "608060405260146000556001805460ff19168117905542600255348015602457600080fd5b506089806100336000396000f3fe6080604052348015600f57600080fd5b506004361060325760003560e01c80637eed01721460375780638381f58a146039575b600080fd5b005b604160005481565b60405190815260200160405180910390f3fea2646970667358221220335eb6250cb89d16ad56beabc14f65e74eb17e1d660d7f4b26aff51716bdd84364736f6c63430008070033",
					"opcodes": "PUSH1 0x80 PUSH1 0x40 MSTORE PUSH1 0x14 PUSH1 0x0 SSTORE PUSH1 0x1 DUP1 SLOAD PUSH1 0xFF NOT AND DUP2 OR SWAP1 SSTORE TIMESTAMP PUSH1 0x2 SSTORE CALLVALUE DUP1 ISZERO PUSH1 0x24 JUMPI PUSH1 0x0 DUP1 REVERT JUMPDEST POP PUSH1 0x89 DUP1 PUSH2 0x33 PUSH1 0x0 CODECOPY PUSH1 0x0 RETURN INVALID PUSH1 0x80 PUSH1 0x40 MSTORE CALLVALUE DUP1 ISZERO PUSH1 0xF JUMPI PUSH1 0x0 DUP1 REVERT JUMPDEST POP PUSH1 0x4 CALLDATASIZE LT PUSH1 0x32 JUMPI PUSH1 0x0 CALLDATALOAD PUSH1 0xE0 SHR DUP1 PUSH4 0x7EED0172 EQ PUSH1 0x37 JUMPI DUP1 PUSH4 0x8381F58A EQ PUSH1 0x39 JUMPI JUMPDEST PUSH1 0x0 DUP1 REVERT JUMPDEST STOP JUMPDEST PUSH1 0x41 PUSH1 0x0 SLOAD DUP2 JUMP JUMPDEST PUSH1 0x40 MLOAD SWAP1 DUP2 MSTORE PUSH1 0x20 ADD PUSH1 0x40 MLOAD DUP1 SWAP2 SUB SWAP1 RETURN INVALID LOG2 PUSH5 0x6970667358 0x22 SLT KECCAK256 CALLER 0x5E 0xB6 0x25 0xC 0xB8 SWAP14 AND 0xAD JUMP 0xBE 0xAB 0xC1 0x4F PUSH6 0xE74EB17E1D66 0xD PUSH32 0x4B26AFF51716BDD84364736F6C63430008070033000000000000000000000000 "
				},
				"gasEstimates": {
					"creation": {
						"codeDepositCost": "27400",
						"executionCost": "68516",
						"totalCost": "95916"
					},
					"external": {
						"myFunc()": "98",
						"number()": "2283"
					}
				},
				"methodIdentifiers": {
					"myFunc()": "7eed0172",
					"number()": "8381f58a"
				}
			},
			"storageLayout": {
				"storage": [
					{
						"astId": 5,
						"contract": "contracts/MyVariables.sol:MyVariables",
						"label": "number",
						"offset": 0,
						"slot": "0",
						"type": "t_uint256"
					},
					{
						"astId": 8,
						"contract": "contracts/MyVariables.sol:MyVariables",
						"label": "paused",
						"offset": 0,
						"slot": "1",
						"type": "t_bool"
					},
					{
						"astId": 12,
						"contract": "contracts/MyVariables.sol:MyVariables",
						"label": "time",
						"offset": 0,
						"slot": "2",
						"type": "t_uint256"
					}
				],
				"types": {
					"t_bool": {
						"encoding": "inplace",
						"label": "bool",
						"numberOfBytes": "1"
					},
					"t_uint256": {
						"encoding": "inplace",
						"label": "uint256",
						"numberOfBytes": "32"
					}
				}
			},
			"userdoc": {
				"kind": "user",
				"methods": {},
				"version": 1
			}
		}
	}
}