{
	"contracts/MyVariables.sol": {
		"INeedVariables": {
			"abi": [
				{
					"inputs": [],
					"name": "myFunc",
					"outputs": [],
					"stateMutability": "view",
					"type": "function"
				},
				{
					"inputs": [],
					"name": "number",
					"outputs": [
						{
							"internalType": "uint256",
							"name": "",
							"type": "uint256"
						}
					],
					"stateMutability": "view",
					"type": "function"
				},
				{
					"inputs": [],
					"name": "paused",
					"outputs": [
						{
							"internalType": "bool",
							"name": "",
							"type": "bool"
						}
					],
					"stateMutability": "view",
					"type": "function"
				},
				{
					"inputs": [],
					"name": "theAwesomeVar",
					"outputs": [
						{
							"internalType": "uint256",
							"name": "",
							"type": "uint256"
						}
					],
					"stateMutability": "view",
					"type": "function"
				}
			],
			"devdoc": {
				"kind": "dev",
				"methods": {},
				"version": 1
			},
			"evm": {
				"assembly": "    /* \"contracts/MyVariables.sol\":630:744  contract INeedVariables is MyVariables {... */\n  mstore(0x40, 0x80)\n    /* \"contracts/MyVariables.sol\":265:267  20 */\n  0x14\n    /* \"contracts/MyVariables.sol\":241:267  uint256 public number = 20 */\n  0x00\n  sstore\n    /* \"contracts/MyVariables.sol\":314:318  true */\n  0x01\n    /* \"contracts/MyVariables.sol\":292:318  bool private paused = true */\n  dup1\n  sload\n  not(0xff)\n  swap1\n  dup2\n  and\n  dup3\n  or\n  swap1\n  swap2\n  sstore\n    /* \"contracts/MyVariables.sol\":367:382  block.timestamp */\n  timestamp\n    /* \"contracts/MyVariables.sol\":343:382  uint256 internal time = block.timestamp */\n  0x02\n  sstore\n    /* \"contracts/MyVariables.sol\":706:709  100 */\n  0x64\n    /* \"contracts/MyVariables.sol\":675:709  uint256 public theAwesomeVar = 100 */\n  0x03\n  sstore\n    /* \"contracts/MyVariables.sol\":715:741  bool public paused = false */\n  0x04\n  dup1\n  sload\n  swap1\n  swap2\n  and\n  swap1\n  sstore\n    /* \"contracts/MyVariables.sol\":630:744  contract INeedVariables is MyVariables {... */\n  callvalue\n  dup1\n  iszero\n  tag_1\n  jumpi\n  0x00\n  dup1\n  revert\ntag_1:\n  pop\n  dataSize(sub_0)\n  dup1\n  dataOffset(sub_0)\n  0x00\n  codecopy\n  0x00\n  return\nstop\n\nsub_0: assembly {\n        /* \"contracts/MyVariables.sol\":630:744  contract INeedVariables is MyVariables {... */\n      mstore(0x40, 0x80)\n      callvalue\n      dup1\n      iszero\n      tag_1\n      jumpi\n      0x00\n      dup1\n      revert\n    tag_1:\n      pop\n      jumpi(tag_2, lt(calldatasize, 0x04))\n      shr(0xe0, calldataload(0x00))\n      dup1\n      0x5c975abb\n      eq\n      tag_3\n      jumpi\n      dup1\n      0x7eed0172\n      eq\n      tag_4\n      jumpi\n      dup1\n      0x8381f58a\n      eq\n      tag_5\n      jumpi\n      dup1\n      0xdecfd790\n      eq\n      tag_6\n      jumpi\n    tag_2:\n      0x00\n      dup1\n      revert\n        /* \"contracts/MyVariables.sol\":715:741  bool public paused = false */\n    tag_3:\n      sload(0x04)\n      tag_7\n      swap1\n      0xff\n      and\n      dup2\n      jump\n    tag_7:\n      mload(0x40)\n        /* \"#utility.yul\":179:193   */\n      swap1\n      iszero\n        /* \"#utility.yul\":172:194   */\n      iszero\n        /* \"#utility.yul\":154:195   */\n      dup2\n      mstore\n        /* \"#utility.yul\":142:144   */\n      0x20\n        /* \"#utility.yul\":127:145   */\n      add\n        /* \"contracts/MyVariables.sol\":715:741  bool public paused = false */\n    tag_9:\n      mload(0x40)\n      dup1\n      swap2\n      sub\n      swap1\n      return\n        /* \"contracts/MyVariables.sol\":432:625  function myFunc() public view {... */\n    tag_4:\n      stop\n        /* \"contracts/MyVariables.sol\":241:267  uint256 public number = 20 */\n    tag_5:\n      tag_13\n      sload(0x00)\n      dup2\n      jump\n    tag_13:\n      mload(0x40)\n        /* \"#utility.yul\":352:377   */\n      swap1\n      dup2\n      mstore\n        /* \"#utility.yul\":340:342   */\n      0x20\n        /* \"#utility.yul\":325:343   */\n      add\n        /* \"contracts/MyVariables.sol\":241:267  uint256 public number = 20 */\n      tag_9\n        /* \"#utility.yul\":206:383   */\n      jump\n        /* \"contracts/MyVariables.sol\":675:709  uint256 public theAwesomeVar = 100 */\n    tag_6:\n      tag_13\n      sload(0x03)\n      dup2\n      jump\n\n    auxdata: 0xa2646970667358221220f479212ba30cc09c35adaeb32c740d7402633823602fe27dbd25c185fbc647aa64736f6c63430008070033\n}\n",
				"bytecode": {
					"linkReferences": {},
					"object": "608060405260146000556001805460ff19908116821790915542600255606460035560048054909116905534801561003657600080fd5b5060c1806100456000396000f3fe6080604052348015600f57600080fd5b506004361060465760003560e01c80635c975abb14604b5780637eed017214606c5780638381f58a14606e578063decfd790146083575b600080fd5b60045460579060ff1681565b60405190151581526020015b60405180910390f35b005b607660005481565b6040519081526020016063565b60766003548156fea2646970667358221220f479212ba30cc09c35adaeb32c740d7402633823602fe27dbd25c185fbc647aa64736f6c63430008070033",
					"opcodes": "PUSH1 0x80 PUSH1 0x40 MSTORE PUSH1 0x14 PUSH1 0x0 SSTORE PUSH1 0x1 DUP1 SLOAD PUSH1 0xFF NOT SWAP1 DUP2 AND DUP3 OR SWAP1 SWAP2 SSTORE TIMESTAMP PUSH1 0x2 SSTORE PUSH1 0x64 PUSH1 0x3 SSTORE PUSH1 0x4 DUP1 SLOAD SWAP1 SWAP2 AND SWAP1 SSTORE CALLVALUE DUP1 ISZERO PUSH2 0x36 JUMPI PUSH1 0x0 DUP1 REVERT JUMPDEST POP PUSH1 0xC1 DUP1 PUSH2 0x45 PUSH1 0x0 CODECOPY PUSH1 0x0 RETURN INVALID PUSH1 0x80 PUSH1 0x40 MSTORE CALLVALUE DUP1 ISZERO PUSH1 0xF JUMPI PUSH1 0x0 DUP1 REVERT JUMPDEST POP PUSH1 0x4 CALLDATASIZE LT PUSH1 0x46 JUMPI PUSH1 0x0 CALLDATALOAD PUSH1 0xE0 SHR DUP1 PUSH4 0x5C975ABB EQ PUSH1 0x4B JUMPI DUP1 PUSH4 0x7EED0172 EQ PUSH1 0x6C JUMPI DUP1 PUSH4 0x8381F58A EQ PUSH1 0x6E JUMPI DUP1 PUSH4 0xDECFD790 EQ PUSH1 0x83 JUMPI JUMPDEST PUSH1 0x0 DUP1 REVERT JUMPDEST PUSH1 0x4 SLOAD PUSH1 0x57 SWAP1 PUSH1 0xFF AND DUP2 JUMP JUMPDEST PUSH1 0x40 MLOAD SWAP1 ISZERO ISZERO DUP2 MSTORE PUSH1 0x20 ADD JUMPDEST PUSH1 0x40 MLOAD DUP1 SWAP2 SUB SWAP1 RETURN JUMPDEST STOP JUMPDEST PUSH1 0x76 PUSH1 0x0 SLOAD DUP2 JUMP JUMPDEST PUSH1 0x40 MLOAD SWAP1 DUP2 MSTORE PUSH1 0x20 ADD PUSH1 0x63 JUMP JUMPDEST PUSH1 0x76 PUSH1 0x3 SLOAD DUP2 JUMP INVALID LOG2 PUSH5 0x6970667358 0x22 SLT KECCAK256 DELEGATECALL PUSH26 0x212BA30CC09C35ADAEB32C740D7402633823602FE27DBD25C185 0xFB 0xC6 SELFBALANCE 0xAA PUSH5 0x736F6C6343 STOP ADDMOD SMOD STOP CALLER "
				},
				"gasEstimates": {
					"creation": {
						"codeDepositCost": "38600",
						"executionCost": "114861",
						"totalCost": "153461"
					},
					"external": {
						"myFunc()": "120",
						"number()": "2317",
						"paused()": "2277",
						"theAwesomeVar()": "2339"
					}
				},
				"methodIdentifiers": {
					"myFunc()": "7eed0172",
					"number()": "8381f58a",
					"paused()": "5c975abb",
					"theAwesomeVar()": "decfd790"
				}
			},
			"storageLayout": {
				"storage": [
					{
						"astId": 5,
						"contract": "contracts/MyVariables.sol:INeedVariables",
						"label": "number",
						"offset": 0,
						"slot": "0",
						"type": "t_uint256"
					},
					{
						"astId": 8,
						"contract": "contracts/MyVariables.sol:INeedVariables",
						"label": "paused",
						"offset": 0,
						"slot": "1",
						"type": "t_bool"
					},
					{
						"astId": 12,
						"contract": "contracts/MyVariables.sol:INeedVariables",
						"label": "time",
						"offset": 0,
						"slot": "2",
						"type": "t_uint256"
					},
					{
						"astId": 22,
						"contract": "contracts/MyVariables.sol:INeedVariables",
						"label": "theAwesomeVar",
						"offset": 0,
						"slot": "3",
						"type": "t_uint256"
					},
					{
						"astId": 25,
						"contract": "contracts/MyVariables.sol:INeedVariables",
						"label": "paused",
						"offset": 0,
						"slot": "4",
						"type": "t_bool"
					}
				],
				"types": {
					"t_bool": {
						"encoding": "inplace",
						"label": "bool",
						"numberOfBytes": "1"
					},
					"t_uint256": {
						"encoding": "inplace",
						"label": "uint256",
						"numberOfBytes": "32"
					}
				}
			},
			"userdoc": {
				"kind": "user",
				"methods": {},
				"version": 1
			}
		}
	}
}