{
	"contracts/MyOperators.sol": {
		"MyOperators": {
			"abi": [
				{
					"inputs": [],
					"name": "example2",
					"outputs": [],
					"stateMutability": "nonpayable",
					"type": "function"
				},
				{
					"inputs": [],
					"name": "example_1",
					"outputs": [],
					"stateMutability": "nonpayable",
					"type": "function"
				},
				{
					"inputs": [],
					"name": "example_3",
					"outputs": [],
					"stateMutability": "nonpayable",
					"type": "function"
				},
				{
					"inputs": [],
					"name": "example_4",
					"outputs": [],
					"stateMutability": "nonpayable",
					"type": "function"
				}
			],
			"devdoc": {
				"author": "Caio Pignatari",
				"details": "Cuidado segundo contrato desenvolvido ",
				"kind": "dev",
				"methods": {},
				"title": "Contrato teste caio",
				"version": 1
			},
			"evm": {
				"assembly": "    /* \"contracts/MyOperators.sol\":214:496  contract MyOperators {... */\n  mstore(0x40, 0x80)\n    /* \"contracts/MyOperators.sol\":241:252  uint8 a = 1 */\n  0x00\n  dup1\n  sload\n  not(0xffffff)\n    /* \"contracts/MyOperators.sol\":277:288  uint8 c = 3 */\n  and\n  0x030201\n  or\n  swap1\n  sstore\n    /* \"contracts/MyOperators.sol\":214:496  contract MyOperators {... */\n  callvalue\n  dup1\n  iszero\n  tag_1\n  jumpi\n  0x00\n  dup1\n  revert\ntag_1:\n  pop\n  dataSize(sub_0)\n  dup1\n  dataOffset(sub_0)\n  0x00\n  codecopy\n  0x00\n  return\nstop\n\nsub_0: assembly {\n        /* \"contracts/MyOperators.sol\":214:496  contract MyOperators {... */\n      mstore(0x40, 0x80)\n      callvalue\n      dup1\n      iszero\n      tag_1\n      jumpi\n      0x00\n      dup1\n      revert\n    tag_1:\n      pop\n      jumpi(tag_2, lt(calldatasize, 0x04))\n      shr(0xe0, calldataload(0x00))\n      dup1\n      0x2c7ad161\n      eq\n      tag_3\n      jumpi\n      dup1\n      0x4ab3248b\n      eq\n      tag_3\n      jumpi\n      dup1\n      0xa54998a7\n      eq\n      tag_3\n      jumpi\n      dup1\n      0xeca2a027\n      eq\n      tag_3\n      jumpi\n    tag_2:\n      0x00\n      dup1\n      revert\n        /* \"contracts/MyOperators.sol\":296:340  function example_1() public {... */\n    tag_3:\n      stop\n\n    auxdata: 0xa2646970667358221220d5a8b85ef493f6a091cf5fd00f6111ee7270bc4957e591f82ee41333dc15de5c64736f6c63430008070033\n}\n",
				"bytecode": {
					"linkReferences": {},
					"object": "60806040526000805462ffffff191662030201179055348015602057600080fd5b5060838061002f6000396000f3fe6080604052348015600f57600080fd5b506004361060465760003560e01c80632c7ad16114604b5780634ab3248b14604b578063a54998a714604b578063eca2a02714604b575b600080fd5b00fea2646970667358221220d5a8b85ef493f6a091cf5fd00f6111ee7270bc4957e591f82ee41333dc15de5c64736f6c63430008070033",
					"opcodes": "PUSH1 0x80 PUSH1 0x40 MSTORE PUSH1 0x0 DUP1 SLOAD PUSH3 0xFFFFFF NOT AND PUSH3 0x30201 OR SWAP1 SSTORE CALLVALUE DUP1 ISZERO PUSH1 0x20 JUMPI PUSH1 0x0 DUP1 REVERT JUMPDEST POP PUSH1 0x83 DUP1 PUSH2 0x2F PUSH1 0x0 CODECOPY PUSH1 0x0 RETURN INVALID PUSH1 0x80 PUSH1 0x40 MSTORE CALLVALUE DUP1 ISZERO PUSH1 0xF JUMPI PUSH1 0x0 DUP1 REVERT JUMPDEST POP PUSH1 0x4 CALLDATASIZE LT PUSH1 0x46 JUMPI PUSH1 0x0 CALLDATALOAD PUSH1 0xE0 SHR DUP1 PUSH4 0x2C7AD161 EQ PUSH1 0x4B JUMPI DUP1 PUSH4 0x4AB3248B EQ PUSH1 0x4B JUMPI DUP1 PUSH4 0xA54998A7 EQ PUSH1 0x4B JUMPI DUP1 PUSH4 0xECA2A027 EQ PUSH1 0x4B JUMPI JUMPDEST PUSH1 0x0 DUP1 REVERT JUMPDEST STOP INVALID LOG2 PUSH5 0x6970667358 0x22 SLT KECCAK256 0xD5 0xA8 0xB8 0x5E DELEGATECALL SWAP4 0xF6 LOG0 SWAP2 0xCF 0x5F 0xD0 0xF PUSH2 0x11EE PUSH19 0x70BC4957E591F82EE41333DC15DE5C64736F6C PUSH4 0x43000807 STOP CALLER "
				},
				"gasEstimates": {
					"creation": {
						"codeDepositCost": "26200",
						"executionCost": "24305",
						"totalCost": "50505"
					},
					"external": {
						"example2()": "142",
						"example_1()": "98",
						"example_3()": "164",
						"example_4()": "120"
					}
				},
				"methodIdentifiers": {
					"example2()": "a54998a7",
					"example_1()": "2c7ad161",
					"example_3()": "eca2a027",
					"example_4()": "4ab3248b"
				}
			},
			"storageLayout": {
				"storage": [
					{
						"astId": 5,
						"contract": "contracts/MyOperators.sol:MyOperators",
						"label": "a",
						"offset": 0,
						"slot": "0",
						"type": "t_uint8"
					},
					{
						"astId": 8,
						"contract": "contracts/MyOperators.sol:MyOperators",
						"label": "b",
						"offset": 1,
						"slot": "0",
						"type": "t_uint8"
					},
					{
						"astId": 11,
						"contract": "contracts/MyOperators.sol:MyOperators",
						"label": "c",
						"offset": 2,
						"slot": "0",
						"type": "t_uint8"
					}
				],
				"types": {
					"t_uint8": {
						"encoding": "inplace",
						"label": "uint8",
						"numberOfBytes": "1"
					}
				}
			},
			"userdoc": {
				"kind": "user",
				"methods": {},
				"version": 1
			}
		}
	}
}