{
	"contracts/MyOperators.sol": {
		"MyOperators": {
			"abi": [
				{
					"inputs": [],
					"name": "example2",
					"outputs": [],
					"stateMutability": "nonpayable",
					"type": "function"
				},
				{
					"inputs": [],
					"name": "example_1",
					"outputs": [],
					"stateMutability": "view",
					"type": "function"
				},
				{
					"inputs": [],
					"name": "example_3",
					"outputs": [],
					"stateMutability": "nonpayable",
					"type": "function"
				},
				{
					"inputs": [],
					"name": "example_4",
					"outputs": [],
					"stateMutability": "nonpayable",
					"type": "function"
				}
			],
			"devdoc": {
				"author": "Caio Pignatari",
				"details": "Cuidado segundo contrato desenvolvido ",
				"kind": "dev",
				"methods": {},
				"title": "Contrato teste caio",
				"version": 1
			},
			"evm": {
				"assembly": "    /* \"contracts/MyOperators.sol\":214:580  contract MyOperators {... */\n  mstore(0x40, 0x80)\n    /* \"contracts/MyOperators.sol\":241:252  uint8 a = 1 */\n  0x00\n  dup1\n  sload\n  not(0xffffff)\n    /* \"contracts/MyOperators.sol\":277:288  uint8 c = 3 */\n  and\n  0x030201\n  or\n  swap1\n  sstore\n    /* \"contracts/MyOperators.sol\":214:580  contract MyOperators {... */\n  callvalue\n  dup1\n  iszero\n  tag_1\n  jumpi\n  0x00\n  dup1\n  revert\ntag_1:\n  pop\n  dataSize(sub_0)\n  dup1\n  dataOffset(sub_0)\n  0x00\n  codecopy\n  0x00\n  return\nstop\n\nsub_0: assembly {\n        /* \"contracts/MyOperators.sol\":214:580  contract MyOperators {... */\n      mstore(0x40, 0x80)\n      callvalue\n      dup1\n      iszero\n      tag_1\n      jumpi\n      0x00\n      dup1\n      revert\n    tag_1:\n      pop\n      jumpi(tag_2, lt(calldatasize, 0x04))\n      shr(0xe0, calldataload(0x00))\n      dup1\n      0x2c7ad161\n      eq\n      tag_3\n      jumpi\n      dup1\n      0x4ab3248b\n      eq\n      tag_7\n      jumpi\n      dup1\n      0xa54998a7\n      eq\n      tag_7\n      jumpi\n      dup1\n      0xeca2a027\n      eq\n      tag_7\n      jumpi\n    tag_2:\n      0x00\n      dup1\n      revert\n        /* \"contracts/MyOperators.sol\":353:424  function example_1() public view {... */\n    tag_3:\n      tag_7\n      tag_8\n      jump\t// in\n    tag_7:\n      stop\n    tag_8:\n        /* \"contracts/MyOperators.sol\":400:401  b */\n      sload(0x00)\n        /* \"contracts/MyOperators.sol\":396:401  a + b */\n      tag_16\n      swap1\n        /* \"contracts/MyOperators.sol\":400:401  b */\n      0xff\n      0x0100\n      dup3\n      div\n      dup2\n      and\n      swap2\n        /* \"contracts/MyOperators.sol\":396:397  a */\n      and\n        /* \"contracts/MyOperators.sol\":396:401  a + b */\n      tag_17\n      jump\t// in\n    tag_16:\n      pop\n        /* \"contracts/MyOperators.sol\":416:417  b */\n      sload(0x00)\n        /* \"contracts/MyOperators.sol\":412:417  c % b */\n      tag_18\n      swap1\n        /* \"contracts/MyOperators.sol\":416:417  b */\n      0xff\n      0x0100\n      dup3\n      div\n      dup2\n      and\n      swap2\n        /* \"contracts/MyOperators.sol\":412:413  c */\n      0x010000\n      swap1\n      div\n      and\n        /* \"contracts/MyOperators.sol\":412:417  c % b */\n      tag_19\n      jump\t// in\n    tag_18:\n      pop\n        /* \"contracts/MyOperators.sol\":353:424  function example_1() public view {... */\n      jump\t// out\n        /* \"#utility.yul\":14:315   */\n    tag_17:\n        /* \"#utility.yul\":52:55   */\n      0x00\n        /* \"#utility.yul\":88:92   */\n      0xff\n        /* \"#utility.yul\":85:86   */\n      dup3\n        /* \"#utility.yul\":81:93   */\n      and\n        /* \"#utility.yul\":120:124   */\n      0xff\n        /* \"#utility.yul\":117:118   */\n      dup5\n        /* \"#utility.yul\":113:125   */\n      and\n        /* \"#utility.yul\":155:158   */\n      dup1\n        /* \"#utility.yul\":149:153   */\n      0xff\n        /* \"#utility.yul\":145:159   */\n      sub\n        /* \"#utility.yul\":140:143   */\n      dup3\n        /* \"#utility.yul\":137:160   */\n      gt\n        /* \"#utility.yul\":134:280   */\n      iszero\n      tag_25\n      jumpi\n        /* \"#utility.yul\":202:212   */\n      0x4e487b71\n        /* \"#utility.yul\":197:200   */\n      0xe0\n        /* \"#utility.yul\":193:213   */\n      shl\n        /* \"#utility.yul\":190:191   */\n      0x00\n        /* \"#utility.yul\":183:214   */\n      mstore\n        /* \"#utility.yul\":237:241   */\n      0x11\n        /* \"#utility.yul\":234:235   */\n      0x04\n        /* \"#utility.yul\":227:242   */\n      mstore\n        /* \"#utility.yul\":265:269   */\n      0x24\n        /* \"#utility.yul\":262:263   */\n      0x00\n        /* \"#utility.yul\":255:270   */\n      revert\n        /* \"#utility.yul\":134:280   */\n    tag_25:\n        /* \"#utility.yul\":296:309   */\n      add\n      swap4\n        /* \"#utility.yul\":14:315   */\n      swap3\n      pop\n      pop\n      pop\n      jump\t// out\n        /* \"#utility.yul\":320:574   */\n    tag_19:\n        /* \"#utility.yul\":350:351   */\n      0x00\n        /* \"#utility.yul\":384:388   */\n      0xff\n        /* \"#utility.yul\":381:382   */\n      dup4\n        /* \"#utility.yul\":377:389   */\n      and\n        /* \"#utility.yul\":408:411   */\n      dup1\n        /* \"#utility.yul\":398:532   */\n      tag_27\n      jumpi\n        /* \"#utility.yul\":454:464   */\n      0x4e487b71\n        /* \"#utility.yul\":449:452   */\n      0xe0\n        /* \"#utility.yul\":445:465   */\n      shl\n        /* \"#utility.yul\":442:443   */\n      0x00\n        /* \"#utility.yul\":435:466   */\n      mstore\n        /* \"#utility.yul\":489:493   */\n      0x12\n        /* \"#utility.yul\":486:487   */\n      0x04\n        /* \"#utility.yul\":479:494   */\n      mstore\n        /* \"#utility.yul\":517:521   */\n      0x24\n        /* \"#utility.yul\":514:515   */\n      0x00\n        /* \"#utility.yul\":507:522   */\n      revert\n        /* \"#utility.yul\":398:532   */\n    tag_27:\n        /* \"#utility.yul\":564:567   */\n      dup1\n        /* \"#utility.yul\":557:561   */\n      0xff\n        /* \"#utility.yul\":554:555   */\n      dup5\n        /* \"#utility.yul\":550:562   */\n      and\n        /* \"#utility.yul\":546:568   */\n      mod\n        /* \"#utility.yul\":541:568   */\n      swap2\n      pop\n      pop\n        /* \"#utility.yul\":320:574   */\n      swap3\n      swap2\n      pop\n      pop\n      jump\t// out\n\n    auxdata: 0xa2646970667358221220b14cd141a9347e58c16764fd5d743b9a140fb59988a1b671e1f2344165d25ccd64736f6c63430008070033\n}\n",
				"bytecode": {
					"linkReferences": {},
					"object": "60806040526000805462ffffff19166203020117905534801561002157600080fd5b5061011e806100316000396000f3fe6080604052348015600f57600080fd5b506004361060465760003560e01c80632c7ad16114604b5780634ab3248b146051578063a54998a7146051578063eca2a027146051575b600080fd5b60516053565b005b60005460689060ff6101008204811691166087565b5060005460849060ff61010082048116916201000090041660b9565b50565b600060ff821660ff84168060ff0382111560b157634e487b7160e01b600052601160045260246000fd5b019392505050565b600060ff83168060d957634e487b7160e01b600052601260045260246000fd5b8060ff8416069150509291505056fea2646970667358221220b14cd141a9347e58c16764fd5d743b9a140fb59988a1b671e1f2344165d25ccd64736f6c63430008070033",
					"opcodes": "PUSH1 0x80 PUSH1 0x40 MSTORE PUSH1 0x0 DUP1 SLOAD PUSH3 0xFFFFFF NOT AND PUSH3 0x30201 OR SWAP1 SSTORE CALLVALUE DUP1 ISZERO PUSH2 0x21 JUMPI PUSH1 0x0 DUP1 REVERT JUMPDEST POP PUSH2 0x11E DUP1 PUSH2 0x31 PUSH1 0x0 CODECOPY PUSH1 0x0 RETURN INVALID PUSH1 0x80 PUSH1 0x40 MSTORE CALLVALUE DUP1 ISZERO PUSH1 0xF JUMPI PUSH1 0x0 DUP1 REVERT JUMPDEST POP PUSH1 0x4 CALLDATASIZE LT PUSH1 0x46 JUMPI PUSH1 0x0 CALLDATALOAD PUSH1 0xE0 SHR DUP1 PUSH4 0x2C7AD161 EQ PUSH1 0x4B JUMPI DUP1 PUSH4 0x4AB3248B EQ PUSH1 0x51 JUMPI DUP1 PUSH4 0xA54998A7 EQ PUSH1 0x51 JUMPI DUP1 PUSH4 0xECA2A027 EQ PUSH1 0x51 JUMPI JUMPDEST PUSH1 0x0 DUP1 REVERT JUMPDEST PUSH1 0x51 PUSH1 0x53 JUMP JUMPDEST STOP JUMPDEST PUSH1 0x0 SLOAD PUSH1 0x68 SWAP1 PUSH1 0xFF PUSH2 0x100 DUP3 DIV DUP2 AND SWAP2 AND PUSH1 0x87 JUMP JUMPDEST POP PUSH1 0x0 SLOAD PUSH1 0x84 SWAP1 PUSH1 0xFF PUSH2 0x100 DUP3 DIV DUP2 AND SWAP2 PUSH3 0x10000 SWAP1 DIV AND PUSH1 0xB9 JUMP JUMPDEST POP JUMP JUMPDEST PUSH1 0x0 PUSH1 0xFF DUP3 AND PUSH1 0xFF DUP5 AND DUP1 PUSH1 0xFF SUB DUP3 GT ISZERO PUSH1 0xB1 JUMPI PUSH4 0x4E487B71 PUSH1 0xE0 SHL PUSH1 0x0 MSTORE PUSH1 0x11 PUSH1 0x4 MSTORE PUSH1 0x24 PUSH1 0x0 REVERT JUMPDEST ADD SWAP4 SWAP3 POP POP POP JUMP JUMPDEST PUSH1 0x0 PUSH1 0xFF DUP4 AND DUP1 PUSH1 0xD9 JUMPI PUSH4 0x4E487B71 PUSH1 0xE0 SHL PUSH1 0x0 MSTORE PUSH1 0x12 PUSH1 0x4 MSTORE PUSH1 0x24 PUSH1 0x0 REVERT JUMPDEST DUP1 PUSH1 0xFF DUP5 AND MOD SWAP2 POP POP SWAP3 SWAP2 POP POP JUMP INVALID LOG2 PUSH5 0x6970667358 0x22 SLT KECCAK256 0xB1 0x4C 0xD1 COINBASE 0xA9 CALLVALUE PUSH31 0x58C16764FD5D743B9A140FB59988A1B671E1F2344165D25CCD64736F6C6343 STOP ADDMOD SMOD STOP CALLER "
				},
				"gasEstimates": {
					"creation": {
						"codeDepositCost": "57200",
						"executionCost": "24329",
						"totalCost": "81529"
					},
					"external": {
						"example2()": "142",
						"example_1()": "4580",
						"example_3()": "164",
						"example_4()": "120"
					}
				},
				"methodIdentifiers": {
					"example2()": "a54998a7",
					"example_1()": "2c7ad161",
					"example_3()": "eca2a027",
					"example_4()": "4ab3248b"
				}
			},
			"storageLayout": {
				"storage": [
					{
						"astId": 5,
						"contract": "contracts/MyOperators.sol:MyOperators",
						"label": "a",
						"offset": 0,
						"slot": "0",
						"type": "t_uint8"
					},
					{
						"astId": 8,
						"contract": "contracts/MyOperators.sol:MyOperators",
						"label": "b",
						"offset": 1,
						"slot": "0",
						"type": "t_uint8"
					},
					{
						"astId": 11,
						"contract": "contracts/MyOperators.sol:MyOperators",
						"label": "c",
						"offset": 2,
						"slot": "0",
						"type": "t_uint8"
					},
					{
						"astId": 13,
						"contract": "contracts/MyOperators.sol:MyOperators",
						"label": "result",
						"offset": 3,
						"slot": "0",
						"type": "t_uint8"
					}
				],
				"types": {
					"t_uint8": {
						"encoding": "inplace",
						"label": "uint8",
						"numberOfBytes": "1"
					}
				}
			},
			"userdoc": {
				"kind": "user",
				"methods": {
					"example_1()": {
						"notice": "Arithmetic Operators ("
					}
				},
				"version": 1
			}
		}
	}
}