{
	"contracts/MyVariables.sol": {
		"INeedVariables": {
			"abi": [
				{
					"inputs": [],
					"name": "myFunc",
					"outputs": [],
					"stateMutability": "nonpayable",
					"type": "function"
				},
				{
					"inputs": [],
					"name": "time",
					"outputs": [
						{
							"internalType": "uint256",
							"name": "",
							"type": "uint256"
						}
					],
					"stateMutability": "view",
					"type": "function"
				}
			],
			"devdoc": {
				"kind": "dev",
				"methods": {},
				"version": 1
			},
			"evm": {
				"assembly": "    /* \"contracts/MyVariables.sol\":603:993  contract INeedVariables {... */\n  mstore(0x40, 0x80)\n    /* \"contracts/MyVariables.sol\":650:652  20 */\n  0x14\n    /* \"contracts/MyVariables.sol\":633:652  uint256 number = 20 */\n  0x00\n  sstore\n    /* \"contracts/MyVariables.sol\":691:695  true */\n  0x01\n    /* \"contracts/MyVariables.sol\":677:695  bool paused = true */\n  dup1\n  sload\n  not(0xff)\n  and\n  dup2\n  or\n  swap1\n  sstore\n    /* \"contracts/MyVariables.sol\":743:758  block.timestamp */\n  timestamp\n    /* \"contracts/MyVariables.sol\":720:758  uint256  public time = block.timestamp */\n  0x02\n  sstore\n    /* \"contracts/MyVariables.sol\":603:993  contract INeedVariables {... */\n  callvalue\n  dup1\n  iszero\n  tag_1\n  jumpi\n  0x00\n  dup1\n  revert\ntag_1:\n  pop\n  dataSize(sub_0)\n  dup1\n  dataOffset(sub_0)\n  0x00\n  codecopy\n  0x00\n  return\nstop\n\nsub_0: assembly {\n        /* \"contracts/MyVariables.sol\":603:993  contract INeedVariables {... */\n      mstore(0x40, 0x80)\n      callvalue\n      dup1\n      iszero\n      tag_1\n      jumpi\n      0x00\n      dup1\n      revert\n    tag_1:\n      pop\n      jumpi(tag_2, lt(calldatasize, 0x04))\n      shr(0xe0, calldataload(0x00))\n      dup1\n      0x16ada547\n      eq\n      tag_3\n      jumpi\n      dup1\n      0x7eed0172\n      eq\n      tag_4\n      jumpi\n    tag_2:\n      0x00\n      dup1\n      revert\n        /* \"contracts/MyVariables.sol\":720:758  uint256  public time = block.timestamp */\n    tag_3:\n      tag_5\n      sload(0x02)\n      dup2\n      jump\n    tag_5:\n      mload(0x40)\n        /* \"#utility.yul\":160:185   */\n      swap1\n      dup2\n      mstore\n        /* \"#utility.yul\":148:150   */\n      0x20\n        /* \"#utility.yul\":133:151   */\n      add\n        /* \"contracts/MyVariables.sol\":720:758  uint256  public time = block.timestamp */\n      mload(0x40)\n      dup1\n      swap2\n      sub\n      swap1\n      return\n        /* \"contracts/MyVariables.sol\":808:990  function myFunc() public {... */\n    tag_4:\n      stop\n\n    auxdata: 0xa26469706673582212202e5d4c5dbf454f3c2335ba26ad77a77a9fb323911c7da5595fb5f132d558589864736f6c63430008070033\n}\n",
				"bytecode": {
					"linkReferences": {},
					"object": "608060405260146000556001805460ff19168117905542600255348015602457600080fd5b506089806100336000396000f3fe6080604052348015600f57600080fd5b506004361060325760003560e01c806316ada5471460375780637eed0172146051575b600080fd5b603f60025481565b60405190815260200160405180910390f35b00fea26469706673582212202e5d4c5dbf454f3c2335ba26ad77a77a9fb323911c7da5595fb5f132d558589864736f6c63430008070033",
					"opcodes": "PUSH1 0x80 PUSH1 0x40 MSTORE PUSH1 0x14 PUSH1 0x0 SSTORE PUSH1 0x1 DUP1 SLOAD PUSH1 0xFF NOT AND DUP2 OR SWAP1 SSTORE TIMESTAMP PUSH1 0x2 SSTORE CALLVALUE DUP1 ISZERO PUSH1 0x24 JUMPI PUSH1 0x0 DUP1 REVERT JUMPDEST POP PUSH1 0x89 DUP1 PUSH2 0x33 PUSH1 0x0 CODECOPY PUSH1 0x0 RETURN INVALID PUSH1 0x80 PUSH1 0x40 MSTORE CALLVALUE DUP1 ISZERO PUSH1 0xF JUMPI PUSH1 0x0 DUP1 REVERT JUMPDEST POP PUSH1 0x4 CALLDATASIZE LT PUSH1 0x32 JUMPI PUSH1 0x0 CALLDATALOAD PUSH1 0xE0 SHR DUP1 PUSH4 0x16ADA547 EQ PUSH1 0x37 JUMPI DUP1 PUSH4 0x7EED0172 EQ PUSH1 0x51 JUMPI JUMPDEST PUSH1 0x0 DUP1 REVERT JUMPDEST PUSH1 0x3F PUSH1 0x2 SLOAD DUP2 JUMP JUMPDEST PUSH1 0x40 MLOAD SWAP1 DUP2 MSTORE PUSH1 0x20 ADD PUSH1 0x40 MLOAD DUP1 SWAP2 SUB SWAP1 RETURN JUMPDEST STOP INVALID LOG2 PUSH5 0x6970667358 0x22 SLT KECCAK256 0x2E 0x5D 0x4C 0x5D 0xBF GASLIMIT 0x4F EXTCODECOPY 0x23 CALLDATALOAD 0xBA 0x26 0xAD PUSH24 0xA77A9FB323911C7DA5595FB5F132D558589864736F6C6343 STOP ADDMOD SMOD STOP CALLER "
				},
				"gasEstimates": {
					"creation": {
						"codeDepositCost": "27400",
						"executionCost": "68516",
						"totalCost": "95916"
					},
					"external": {
						"myFunc()": "120",
						"time()": "2261"
					}
				},
				"methodIdentifiers": {
					"myFunc()": "7eed0172",
					"time()": "16ada547"
				}
			},
			"storageLayout": {
				"storage": [
					{
						"astId": 33,
						"contract": "contracts/MyVariables.sol:INeedVariables",
						"label": "number",
						"offset": 0,
						"slot": "0",
						"type": "t_uint256"
					},
					{
						"astId": 36,
						"contract": "contracts/MyVariables.sol:INeedVariables",
						"label": "paused",
						"offset": 0,
						"slot": "1",
						"type": "t_bool"
					},
					{
						"astId": 40,
						"contract": "contracts/MyVariables.sol:INeedVariables",
						"label": "time",
						"offset": 0,
						"slot": "2",
						"type": "t_uint256"
					}
				],
				"types": {
					"t_bool": {
						"encoding": "inplace",
						"label": "bool",
						"numberOfBytes": "1"
					},
					"t_uint256": {
						"encoding": "inplace",
						"label": "uint256",
						"numberOfBytes": "32"
					}
				}
			},
			"userdoc": {
				"kind": "user",
				"methods": {},
				"version": 1
			}
		}
	}
}