{
	"contracts/MyOperators.sol": {
		"MyOperators": {
			"abi": [
				{
					"inputs": [],
					"name": "example2",
					"outputs": [],
					"stateMutability": "nonpayable",
					"type": "function"
				},
				{
					"inputs": [],
					"name": "example_1",
					"outputs": [],
					"stateMutability": "view",
					"type": "function"
				},
				{
					"inputs": [],
					"name": "example_3",
					"outputs": [],
					"stateMutability": "nonpayable",
					"type": "function"
				},
				{
					"inputs": [],
					"name": "example_4",
					"outputs": [],
					"stateMutability": "nonpayable",
					"type": "function"
				},
				{
					"inputs": [],
					"name": "result",
					"outputs": [
						{
							"internalType": "uint8",
							"name": "",
							"type": "uint8"
						}
					],
					"stateMutability": "view",
					"type": "function"
				}
			],
			"devdoc": {
				"author": "Caio Pignatari",
				"details": "Cuidado segundo contrato desenvolvido ",
				"kind": "dev",
				"methods": {},
				"title": "Contrato teste caio",
				"version": 1
			},
			"evm": {
				"assembly": "    /* \"contracts/MyOperators.sol\":214:543  contract MyOperators {... */\n  mstore(0x40, 0x80)\n    /* \"contracts/MyOperators.sol\":241:252  uint8 a = 1 */\n  0x00\n  dup1\n  sload\n  not(0xffffff)\n    /* \"contracts/MyOperators.sol\":277:288  uint8 c = 3 */\n  and\n  0x030201\n  or\n  swap1\n  sstore\n    /* \"contracts/MyOperators.sol\":214:543  contract MyOperators {... */\n  callvalue\n  dup1\n  iszero\n  tag_1\n  jumpi\n  0x00\n  dup1\n  revert\ntag_1:\n  pop\n  dataSize(sub_0)\n  dup1\n  dataOffset(sub_0)\n  0x00\n  codecopy\n  0x00\n  return\nstop\n\nsub_0: assembly {\n        /* \"contracts/MyOperators.sol\":214:543  contract MyOperators {... */\n      mstore(0x40, 0x80)\n      callvalue\n      dup1\n      iszero\n      tag_1\n      jumpi\n      0x00\n      dup1\n      revert\n    tag_1:\n      pop\n      jumpi(tag_2, lt(calldatasize, 0x04))\n      shr(0xe0, calldataload(0x00))\n      dup1\n      0x2c7ad161\n      eq\n      tag_3\n      jumpi\n      dup1\n      0x4ab3248b\n      eq\n      tag_8\n      jumpi\n      dup1\n      0x65372147\n      eq\n      tag_5\n      jumpi\n      dup1\n      0xa54998a7\n      eq\n      tag_8\n      jumpi\n      dup1\n      0xeca2a027\n      eq\n      tag_8\n      jumpi\n    tag_2:\n      0x00\n      dup1\n      revert\n        /* \"contracts/MyOperators.sol\":322:387  function example_1() public view {... */\n    tag_3:\n      tag_8\n      tag_9\n      jump\t// in\n    tag_8:\n      stop\n        /* \"contracts/MyOperators.sol\":295:315  uint8  public result */\n    tag_5:\n      sload(0x00)\n      tag_12\n      swap1\n      0x01000000\n      swap1\n      div\n      0xff\n      and\n      dup2\n      jump\n    tag_12:\n      mload(0x40)\n        /* \"#utility.yul\":186:190   */\n      0xff\n        /* \"#utility.yul\":174:191   */\n      swap1\n      swap2\n      and\n        /* \"#utility.yul\":156:192   */\n      dup2\n      mstore\n        /* \"#utility.yul\":144:146   */\n      0x20\n        /* \"#utility.yul\":129:147   */\n      add\n        /* \"contracts/MyOperators.sol\":295:315  uint8  public result */\n      mload(0x40)\n      dup1\n      swap2\n      sub\n      swap1\n      return\n        /* \"contracts/MyOperators.sol\":322:387  function example_1() public view {... */\n    tag_9:\n        /* \"contracts/MyOperators.sol\":369:370  b */\n      sload(0x00)\n        /* \"contracts/MyOperators.sol\":365:370  a + b */\n      tag_21\n      swap1\n        /* \"contracts/MyOperators.sol\":369:370  b */\n      0xff\n      0x0100\n      dup3\n      div\n      dup2\n      and\n      swap2\n        /* \"contracts/MyOperators.sol\":365:366  a */\n      and\n        /* \"contracts/MyOperators.sol\":365:370  a + b */\n      tag_22\n      jump\t// in\n    tag_21:\n      pop\n        /* \"contracts/MyOperators.sol\":322:387  function example_1() public view {... */\n      jump\t// out\n        /* \"#utility.yul\":203:504   */\n    tag_22:\n        /* \"#utility.yul\":241:244   */\n      0x00\n        /* \"#utility.yul\":277:281   */\n      0xff\n        /* \"#utility.yul\":274:275   */\n      dup3\n        /* \"#utility.yul\":270:282   */\n      and\n        /* \"#utility.yul\":309:313   */\n      0xff\n        /* \"#utility.yul\":306:307   */\n      dup5\n        /* \"#utility.yul\":302:314   */\n      and\n        /* \"#utility.yul\":344:347   */\n      dup1\n        /* \"#utility.yul\":338:342   */\n      0xff\n        /* \"#utility.yul\":334:348   */\n      sub\n        /* \"#utility.yul\":329:332   */\n      dup3\n        /* \"#utility.yul\":326:349   */\n      gt\n        /* \"#utility.yul\":323:469   */\n      iszero\n      tag_29\n      jumpi\n        /* \"#utility.yul\":391:401   */\n      0x4e487b71\n        /* \"#utility.yul\":386:389   */\n      0xe0\n        /* \"#utility.yul\":382:402   */\n      shl\n        /* \"#utility.yul\":379:380   */\n      0x00\n        /* \"#utility.yul\":372:403   */\n      mstore\n        /* \"#utility.yul\":426:430   */\n      0x11\n        /* \"#utility.yul\":423:424   */\n      0x04\n        /* \"#utility.yul\":416:431   */\n      mstore\n        /* \"#utility.yul\":454:458   */\n      0x24\n        /* \"#utility.yul\":451:452   */\n      0x00\n        /* \"#utility.yul\":444:459   */\n      revert\n        /* \"#utility.yul\":323:469   */\n    tag_29:\n        /* \"#utility.yul\":485:498   */\n      add\n      swap4\n        /* \"#utility.yul\":203:504   */\n      swap3\n      pop\n      pop\n      pop\n      jump\t// out\n\n    auxdata: 0xa26469706673582212205a251a3150419839d536bf2b881e18df207f21bc8266debf1d565b1b7e5bdd5f64736f6c63430008070033\n}\n",
				"bytecode": {
					"linkReferences": {},
					"object": "60806040526000805462ffffff19166203020117905534801561002157600080fd5b50610106806100316000396000f3fe6080604052348015600f57600080fd5b506004361060505760003560e01c80632c7ad1611460555780634ab3248b14605b5780636537214714605d578063a54998a714605b578063eca2a02714605b575b600080fd5b605b6086565b005b6000546070906301000000900460ff1681565b60405160ff909116815260200160405180910390f35b600054609b9060ff610100820481169116609e565b50565b600060ff821660ff84168060ff0382111560c857634e487b7160e01b600052601160045260246000fd5b01939250505056fea26469706673582212205a251a3150419839d536bf2b881e18df207f21bc8266debf1d565b1b7e5bdd5f64736f6c63430008070033",
					"opcodes": "PUSH1 0x80 PUSH1 0x40 MSTORE PUSH1 0x0 DUP1 SLOAD PUSH3 0xFFFFFF NOT AND PUSH3 0x30201 OR SWAP1 SSTORE CALLVALUE DUP1 ISZERO PUSH2 0x21 JUMPI PUSH1 0x0 DUP1 REVERT JUMPDEST POP PUSH2 0x106 DUP1 PUSH2 0x31 PUSH1 0x0 CODECOPY PUSH1 0x0 RETURN INVALID PUSH1 0x80 PUSH1 0x40 MSTORE CALLVALUE DUP1 ISZERO PUSH1 0xF JUMPI PUSH1 0x0 DUP1 REVERT JUMPDEST POP PUSH1 0x4 CALLDATASIZE LT PUSH1 0x50 JUMPI PUSH1 0x0 CALLDATALOAD PUSH1 0xE0 SHR DUP1 PUSH4 0x2C7AD161 EQ PUSH1 0x55 JUMPI DUP1 PUSH4 0x4AB3248B EQ PUSH1 0x5B JUMPI DUP1 PUSH4 0x65372147 EQ PUSH1 0x5D JUMPI DUP1 PUSH4 0xA54998A7 EQ PUSH1 0x5B JUMPI DUP1 PUSH4 0xECA2A027 EQ PUSH1 0x5B JUMPI JUMPDEST PUSH1 0x0 DUP1 REVERT JUMPDEST PUSH1 0x5B PUSH1 0x86 JUMP JUMPDEST STOP JUMPDEST PUSH1 0x0 SLOAD PUSH1 0x70 SWAP1 PUSH4 0x1000000 SWAP1 DIV PUSH1 0xFF AND DUP2 JUMP JUMPDEST PUSH1 0x40 MLOAD PUSH1 0xFF SWAP1 SWAP2 AND DUP2 MSTORE PUSH1 0x20 ADD PUSH1 0x40 MLOAD DUP1 SWAP2 SUB SWAP1 RETURN JUMPDEST PUSH1 0x0 SLOAD PUSH1 0x9B SWAP1 PUSH1 0xFF PUSH2 0x100 DUP3 DIV DUP2 AND SWAP2 AND PUSH1 0x9E JUMP JUMPDEST POP JUMP JUMPDEST PUSH1 0x0 PUSH1 0xFF DUP3 AND PUSH1 0xFF DUP5 AND DUP1 PUSH1 0xFF SUB DUP3 GT ISZERO PUSH1 0xC8 JUMPI PUSH4 0x4E487B71 PUSH1 0xE0 SHL PUSH1 0x0 MSTORE PUSH1 0x11 PUSH1 0x4 MSTORE PUSH1 0x24 PUSH1 0x0 REVERT JUMPDEST ADD SWAP4 SWAP3 POP POP POP JUMP INVALID LOG2 PUSH5 0x6970667358 0x22 SLT KECCAK256 GAS 0x25 BYTE BALANCE POP COINBASE SWAP9 CODECOPY 0xD5 CALLDATASIZE 0xBF 0x2B DUP9 0x1E XOR 0xDF KECCAK256 PUSH32 0x21BC8266DEBF1D565B1B7E5BDD5F64736F6C6343000807003300000000000000 "
				},
				"gasEstimates": {
					"creation": {
						"codeDepositCost": "52400",
						"executionCost": "24329",
						"totalCost": "76729"
					},
					"external": {
						"example2()": "164",
						"example_1()": "2348",
						"example_3()": "186",
						"example_4()": "120",
						"result()": "2334"
					}
				},
				"methodIdentifiers": {
					"example2()": "a54998a7",
					"example_1()": "2c7ad161",
					"example_3()": "eca2a027",
					"example_4()": "4ab3248b",
					"result()": "65372147"
				}
			},
			"storageLayout": {
				"storage": [
					{
						"astId": 5,
						"contract": "contracts/MyOperators.sol:MyOperators",
						"label": "a",
						"offset": 0,
						"slot": "0",
						"type": "t_uint8"
					},
					{
						"astId": 8,
						"contract": "contracts/MyOperators.sol:MyOperators",
						"label": "b",
						"offset": 1,
						"slot": "0",
						"type": "t_uint8"
					},
					{
						"astId": 11,
						"contract": "contracts/MyOperators.sol:MyOperators",
						"label": "c",
						"offset": 2,
						"slot": "0",
						"type": "t_uint8"
					},
					{
						"astId": 13,
						"contract": "contracts/MyOperators.sol:MyOperators",
						"label": "result",
						"offset": 3,
						"slot": "0",
						"type": "t_uint8"
					}
				],
				"types": {
					"t_uint8": {
						"encoding": "inplace",
						"label": "uint8",
						"numberOfBytes": "1"
					}
				}
			},
			"userdoc": {
				"kind": "user",
				"methods": {},
				"version": 1
			}
		}
	}
}