{
	"contracts/MyVariables.sol": {
		"MyVariables": {
			"abi": [
				{
					"inputs": [],
					"name": "myFunc",
					"outputs": [],
					"stateMutability": "view",
					"type": "function"
				}
			],
			"devdoc": {
				"author": "Caio Pignatari",
				"details": "Cuidado segundo contrato desenvolvido ",
				"kind": "dev",
				"methods": {},
				"title": "Contrato teste caio",
				"version": 1
			},
			"evm": {
				"assembly": "    /* \"contracts/MyVariables.sol\":214:606  contract MyVariables {... */\n  mstore(0x40, 0x80)\n    /* \"contracts/MyVariables.sol\":258:260  20 */\n  0x14\n    /* \"contracts/MyVariables.sol\":241:260  uint256 number = 20 */\n  0x00\n  sstore\n    /* \"contracts/MyVariables.sol\":299:303  true */\n  0x01\n    /* \"contracts/MyVariables.sol\":285:303  bool paused = true */\n  dup1\n  sload\n  not(0xff)\n  and\n  dup2\n  or\n  swap1\n  sstore\n    /* \"contracts/MyVariables.sol\":345:360  block.timestamp */\n  timestamp\n    /* \"contracts/MyVariables.sol\":328:360  uint256   time = block.timestamp */\n  0x02\n  sstore\n    /* \"contracts/MyVariables.sol\":214:606  contract MyVariables {... */\n  callvalue\n  dup1\n  iszero\n  tag_1\n  jumpi\n  0x00\n  dup1\n  revert\ntag_1:\n  pop\n  dataSize(sub_0)\n  dup1\n  dataOffset(sub_0)\n  0x00\n  codecopy\n  0x00\n  return\nstop\n\nsub_0: assembly {\n        /* \"contracts/MyVariables.sol\":214:606  contract MyVariables {... */\n      mstore(0x40, 0x80)\n      callvalue\n      dup1\n      iszero\n      tag_1\n      jumpi\n      0x00\n      dup1\n      revert\n    tag_1:\n      pop\n      jumpi(tag_2, lt(calldatasize, 0x04))\n      shr(0xe0, calldataload(0x00))\n      dup1\n      0x7eed0172\n      eq\n      tag_3\n      jumpi\n    tag_2:\n      0x00\n      dup1\n      revert\n        /* \"contracts/MyVariables.sol\":410:603  function myFunc() public view {... */\n    tag_3:\n      stop\n\n    auxdata: 0xa2646970667358221220e31233abc16bd5bb6cae121f1f4fb4de8b8d04e8f4246e13019df4dc7de74a8464736f6c63430008070033\n}\n",
				"bytecode": {
					"linkReferences": {},
					"object": "608060405260146000556001805460ff19168117905542600255348015602457600080fd5b5060658060326000396000f3fe6080604052348015600f57600080fd5b506004361060285760003560e01c80637eed017214602d575b600080fd5b00fea2646970667358221220e31233abc16bd5bb6cae121f1f4fb4de8b8d04e8f4246e13019df4dc7de74a8464736f6c63430008070033",
					"opcodes": "PUSH1 0x80 PUSH1 0x40 MSTORE PUSH1 0x14 PUSH1 0x0 SSTORE PUSH1 0x1 DUP1 SLOAD PUSH1 0xFF NOT AND DUP2 OR SWAP1 SSTORE TIMESTAMP PUSH1 0x2 SSTORE CALLVALUE DUP1 ISZERO PUSH1 0x24 JUMPI PUSH1 0x0 DUP1 REVERT JUMPDEST POP PUSH1 0x65 DUP1 PUSH1 0x32 PUSH1 0x0 CODECOPY PUSH1 0x0 RETURN INVALID PUSH1 0x80 PUSH1 0x40 MSTORE CALLVALUE DUP1 ISZERO PUSH1 0xF JUMPI PUSH1 0x0 DUP1 REVERT JUMPDEST POP PUSH1 0x4 CALLDATASIZE LT PUSH1 0x28 JUMPI PUSH1 0x0 CALLDATALOAD PUSH1 0xE0 SHR DUP1 PUSH4 0x7EED0172 EQ PUSH1 0x2D JUMPI JUMPDEST PUSH1 0x0 DUP1 REVERT JUMPDEST STOP INVALID LOG2 PUSH5 0x6970667358 0x22 SLT KECCAK256 0xE3 SLT CALLER 0xAB 0xC1 PUSH12 0xD5BB6CAE121F1F4FB4DE8B8D DIV 0xE8 DELEGATECALL 0x24 PUSH15 0x13019DF4DC7DE74A8464736F6C6343 STOP ADDMOD SMOD STOP CALLER "
				},
				"gasEstimates": {
					"creation": {
						"codeDepositCost": "20200",
						"executionCost": "68510",
						"totalCost": "88710"
					},
					"external": {
						"myFunc()": "98"
					}
				},
				"methodIdentifiers": {
					"myFunc()": "7eed0172"
				}
			},
			"storageLayout": {
				"storage": [
					{
						"astId": 5,
						"contract": "contracts/MyVariables.sol:MyVariables",
						"label": "number",
						"offset": 0,
						"slot": "0",
						"type": "t_uint256"
					},
					{
						"astId": 8,
						"contract": "contracts/MyVariables.sol:MyVariables",
						"label": "paused",
						"offset": 0,
						"slot": "1",
						"type": "t_bool"
					},
					{
						"astId": 12,
						"contract": "contracts/MyVariables.sol:MyVariables",
						"label": "time",
						"offset": 0,
						"slot": "2",
						"type": "t_uint256"
					}
				],
				"types": {
					"t_bool": {
						"encoding": "inplace",
						"label": "bool",
						"numberOfBytes": "1"
					},
					"t_uint256": {
						"encoding": "inplace",
						"label": "uint256",
						"numberOfBytes": "32"
					}
				}
			},
			"userdoc": {
				"kind": "user",
				"methods": {},
				"version": 1
			}
		}
	}
}