{
	"contracts/MyOperators.sol": {
		"MyOperators": {
			"abi": [
				{
					"inputs": [],
					"name": "example2",
					"outputs": [],
					"stateMutability": "nonpayable",
					"type": "function"
				},
				{
					"inputs": [],
					"name": "example_1",
					"outputs": [],
					"stateMutability": "nonpayable",
					"type": "function"
				},
				{
					"inputs": [],
					"name": "example_3",
					"outputs": [],
					"stateMutability": "view",
					"type": "function"
				},
				{
					"inputs": [],
					"name": "example_4",
					"outputs": [],
					"stateMutability": "view",
					"type": "function"
				},
				{
					"inputs": [],
					"name": "example_5",
					"outputs": [],
					"stateMutability": "view",
					"type": "function"
				}
			],
			"devdoc": {
				"author": "Caio Pignatari",
				"details": "Cuidado segundo contrato desenvolvido ",
				"kind": "dev",
				"methods": {},
				"title": "Contrato teste caio",
				"version": 1
			},
			"evm": {
				"assembly": "    /* \"contracts/MyOperators.sol\":214:1513  contract MyOperators {... */\n  mstore(0x40, 0x80)\n    /* \"contracts/MyOperators.sol\":241:252  uint8 a = 1 */\n  0x00\n  dup1\n  sload\n  not(0xffffff)\n    /* \"contracts/MyOperators.sol\":277:288  uint8 c = 3 */\n  and\n  0x030201\n  or\n  swap1\n  sstore\n    /* \"contracts/MyOperators.sol\":214:1513  contract MyOperators {... */\n  callvalue\n  dup1\n  iszero\n  tag_1\n  jumpi\n  0x00\n  dup1\n  revert\ntag_1:\n  pop\n  dataSize(sub_0)\n  dup1\n  dataOffset(sub_0)\n  0x00\n  codecopy\n  0x00\n  return\nstop\n\nsub_0: assembly {\n        /* \"contracts/MyOperators.sol\":214:1513  contract MyOperators {... */\n      mstore(0x40, 0x80)\n      callvalue\n      dup1\n      iszero\n      tag_1\n      jumpi\n      0x00\n      dup1\n      revert\n    tag_1:\n      pop\n      jumpi(tag_2, lt(calldatasize, 0x04))\n      shr(0xe0, calldataload(0x00))\n      dup1\n      0x2c7ad161\n      eq\n      tag_3\n      jumpi\n      dup1\n      0x4ab3248b\n      eq\n      tag_4\n      jumpi\n      dup1\n      0xa54998a7\n      eq\n      tag_5\n      jumpi\n      dup1\n      0xce406164\n      eq\n      tag_8\n      jumpi\n      dup1\n      0xeca2a027\n      eq\n      tag_7\n      jumpi\n    tag_2:\n      0x00\n      dup1\n      revert\n        /* \"contracts/MyOperators.sol\":392:485  function example_1() public  {... */\n    tag_3:\n      tag_8\n      tag_9\n      jump\t// in\n    tag_8:\n      stop\n        /* \"contracts/MyOperators.sol\":1079:1411  function example_4() public view {... */\n    tag_4:\n      tag_8\n      tag_11\n      jump\t// in\n        /* \"contracts/MyOperators.sol\":548:661  function example2() public {... */\n    tag_5:\n      tag_8\n      tag_13\n      jump\t// in\n        /* \"contracts/MyOperators.sol\":730:1028  function example_3() public view {... */\n    tag_7:\n      tag_8\n      tag_17\n      jump\t// in\n        /* \"contracts/MyOperators.sol\":392:485  function example_1() public  {... */\n    tag_9:\n        /* \"contracts/MyOperators.sol\":435:436  b */\n      sload(0x00)\n        /* \"contracts/MyOperators.sol\":431:436  a + b */\n      tag_19\n      swap1\n        /* \"contracts/MyOperators.sol\":435:436  b */\n      0xff\n      0x0100\n      dup3\n      div\n      dup2\n      and\n      swap2\n        /* \"contracts/MyOperators.sol\":431:432  a */\n      and\n        /* \"contracts/MyOperators.sol\":431:436  a + b */\n      tag_20\n      jump\t// in\n    tag_19:\n      pop\n        /* \"contracts/MyOperators.sol\":451:452  b */\n      sload(0x00)\n        /* \"contracts/MyOperators.sol\":447:452  c % b */\n      tag_21\n      swap1\n        /* \"contracts/MyOperators.sol\":451:452  b */\n      0xff\n      0x0100\n      dup3\n      div\n      dup2\n      and\n      swap2\n        /* \"contracts/MyOperators.sol\":447:448  c */\n      0x010000\n      swap1\n      div\n      and\n        /* \"contracts/MyOperators.sol\":447:452  c % b */\n      tag_22\n      jump\t// in\n    tag_21:\n      pop\n        /* \"contracts/MyOperators.sol\":462:463  a */\n      0x00\n        /* \"contracts/MyOperators.sol\":462:465  a++ */\n      dup1\n      sload\n      0xff\n      and\n      swap1\n        /* \"contracts/MyOperators.sol\":462:463  a */\n      dup1\n        /* \"contracts/MyOperators.sol\":462:465  a++ */\n      tag_23\n      dup4\n      tag_24\n      jump\t// in\n    tag_23:\n      dup3\n      sload\n      0xff\n      swap2\n      dup3\n      and\n      0x0100\n      swap4\n      dup5\n      exp\n      swap1\n      dup2\n      mul\n      swap1\n      dup4\n      mul\n      not\n      swap1\n      swap2\n      and\n      or\n      swap1\n      swap3\n      sstore\n      0x00\n        /* \"contracts/MyOperators.sol\":475:478  b-- */\n      dup1\n      sload\n      swap2\n      swap1\n      swap2\n      div\n      swap1\n      swap2\n      and\n      swap2\n      pop\n      0x01\n      tag_25\n      dup4\n      tag_26\n      jump\t// in\n    tag_25:\n      swap2\n      swap1\n      0x0100\n      exp\n      dup2\n      sload\n      dup2\n      0xff\n      mul\n      not\n      and\n      swap1\n      dup4\n      0xff\n      and\n      mul\n      or\n      swap1\n      sstore\n      pop\n      pop\n        /* \"contracts/MyOperators.sol\":392:485  function example_1() public  {... */\n      jump\t// out\n        /* \"contracts/MyOperators.sol\":1079:1411  function example_4() public view {... */\n    tag_11:\n        /* \"contracts/MyOperators.sol\":1122:1131  bool flag */\n      0x00\n        /* \"contracts/MyOperators.sol\":1156:1157  b */\n      dup1\n      sload\n      0xff\n      0x0100\n      dup3\n      div\n      dup2\n      and\n        /* \"contracts/MyOperators.sol\":1152:1153  a */\n      swap2\n      and\n        /* \"contracts/MyOperators.sol\":1152:1157  a < b */\n      lt\n        /* \"contracts/MyOperators.sol\":1152:1166  a < b && b > c */\n      dup1\n      iszero\n      tag_28\n      jumpi\n      pop\n        /* \"contracts/MyOperators.sol\":1165:1166  c */\n      sload(0x00)\n      0xff\n      0x010000\n      dup3\n      div\n      dup2\n      and\n      0x0100\n        /* \"contracts/MyOperators.sol\":1161:1162  b */\n      swap1\n      swap3\n      div\n      and\n        /* \"contracts/MyOperators.sol\":1161:1166  b > c */\n      gt\n        /* \"contracts/MyOperators.sol\":1152:1166  a < b && b > c */\n    tag_28:\n        /* \"contracts/MyOperators.sol\":1149:1204  if(a < b && b > c ){... */\n      iszero\n      tag_29\n      jumpi\n      pop\n        /* \"contracts/MyOperators.sol\":1189:1193  true */\n      0x01\n        /* \"contracts/MyOperators.sol\":1149:1204  if(a < b && b > c ){... */\n    tag_29:\n        /* \"contracts/MyOperators.sol\":1220:1221  b */\n      sload(0x00)\n      0xff\n      0x0100\n      dup3\n      div\n      dup2\n      and\n        /* \"contracts/MyOperators.sol\":1216:1217  a */\n      swap2\n      and\n        /* \"contracts/MyOperators.sol\":1216:1221  a < b */\n      lt\n        /* \"contracts/MyOperators.sol\":1216:1231  a < b && a > 10 */\n      dup1\n      iszero\n      tag_30\n      jumpi\n      pop\n        /* \"contracts/MyOperators.sol\":1225:1226  a */\n      sload(0x00)\n        /* \"contracts/MyOperators.sol\":1229:1231  10 */\n      0x0a\n        /* \"contracts/MyOperators.sol\":1225:1226  a */\n      0xff\n      swap1\n      swap2\n      and\n        /* \"contracts/MyOperators.sol\":1225:1231  a > 10 */\n      gt\n        /* \"contracts/MyOperators.sol\":1216:1231  a < b && a > 10 */\n    tag_30:\n        /* \"contracts/MyOperators.sol\":1213:1269  if(a < b && a > 10 ){... */\n      iszero\n      tag_31\n      jumpi\n      pop\n        /* \"contracts/MyOperators.sol\":1254:1258  true */\n      0x01\n        /* \"contracts/MyOperators.sol\":1213:1269  if(a < b && a > 10 ){... */\n    tag_31:\n        /* \"contracts/MyOperators.sol\":1286:1287  b */\n      sload(0x00)\n      0xff\n      0x0100\n      dup3\n      div\n      dup2\n      and\n        /* \"contracts/MyOperators.sol\":1282:1283  a */\n      swap2\n      and\n        /* \"contracts/MyOperators.sol\":1282:1287  a < b */\n      lt\n        /* \"contracts/MyOperators.sol\":1282:1296  a < b && b > c */\n      dup1\n      iszero\n      tag_32\n      jumpi\n      pop\n        /* \"contracts/MyOperators.sol\":1295:1296  c */\n      sload(0x00)\n      0xff\n      0x010000\n      dup3\n      div\n      dup2\n      and\n      0x0100\n        /* \"contracts/MyOperators.sol\":1291:1292  b */\n      swap1\n      swap3\n      div\n      and\n        /* \"contracts/MyOperators.sol\":1291:1296  b > c */\n      gt\n        /* \"contracts/MyOperators.sol\":1282:1296  a < b && b > c */\n    tag_32:\n        /* \"contracts/MyOperators.sol\":1281:1309  (a < b && b > c) || (a < b ) */\n      dup1\n      tag_33\n      jumpi\n      pop\n        /* \"contracts/MyOperators.sol\":1306:1307  b */\n      sload(0x00)\n      0xff\n      0x0100\n      dup3\n      div\n      dup2\n      and\n        /* \"contracts/MyOperators.sol\":1302:1303  a */\n      swap2\n      and\n        /* \"contracts/MyOperators.sol\":1302:1307  a < b */\n      lt\n        /* \"contracts/MyOperators.sol\":1281:1309  (a < b && b > c) || (a < b ) */\n    tag_33:\n        /* \"contracts/MyOperators.sol\":1278:1346  if((a < b && b > c) || (a < b )){... */\n      iszero\n      tag_34\n      jumpi\n      pop\n        /* \"contracts/MyOperators.sol\":1331:1335  true */\n      0x01\n        /* \"contracts/MyOperators.sol\":1278:1346  if((a < b && b > c) || (a < b )){... */\n    tag_34:\n        /* \"contracts/MyOperators.sol\":1361:1367  myBool */\n      sload(0x00)\n      0x0100000000\n      swap1\n      div\n      0xff\n      and\n        /* \"contracts/MyOperators.sol\":1356:1405  if (!myBool) {... */\n      tag_35\n      jumpi\n      pop\n        /* \"contracts/MyOperators.sol\":1390:1394  true */\n      0x01\n        /* \"contracts/MyOperators.sol\":1356:1405  if (!myBool) {... */\n    tag_35:\n        /* \"contracts/MyOperators.sol\":1112:1411  {... */\n      pop\n        /* \"contracts/MyOperators.sol\":1079:1411  function example_4() public view {... */\n      jump\t// out\n        /* \"contracts/MyOperators.sol\":548:661  function example2() public {... */\n    tag_13:\n        /* \"contracts/MyOperators.sol\":598:599  b */\n      sload(0x00)\n        /* \"contracts/MyOperators.sol\":594:599  a + b */\n      tag_37\n      swap1\n        /* \"contracts/MyOperators.sol\":598:599  b */\n      0xff\n      0x0100\n      dup3\n      div\n      dup2\n      and\n      swap2\n        /* \"contracts/MyOperators.sol\":594:595  a */\n      and\n        /* \"contracts/MyOperators.sol\":594:599  a + b */\n      tag_20\n      jump\t// in\n    tag_37:\n        /* \"contracts/MyOperators.sol\":585:591  result */\n      0x00\n        /* \"contracts/MyOperators.sol\":585:599  result = a + b */\n      dup1\n      sload\n      not(0xff000000)\n      and\n      0x01000000\n      0xff\n      swap4\n      dup5\n      and\n      mul\n      or\n      swap1\n      dup2\n      swap1\n      sstore\n        /* \"contracts/MyOperators.sol\":614:619  b * c */\n      tag_38\n      swap2\n        /* \"contracts/MyOperators.sol\":618:619  c */\n      0x010000\n      dup3\n      div\n      dup2\n      and\n      swap2\n        /* \"contracts/MyOperators.sol\":585:599  result = a + b */\n      0x0100\n        /* \"contracts/MyOperators.sol\":614:615  b */\n      swap1\n      div\n      and\n        /* \"contracts/MyOperators.sol\":614:619  b * c */\n      tag_39\n      jump\t// in\n    tag_38:\n        /* \"contracts/MyOperators.sol\":610:611  a */\n      0x00\n        /* \"contracts/MyOperators.sol\":610:619  a = b * c */\n      dup1\n      sload\n      not(0xff)\n      and\n      0xff\n      swap3\n      dup4\n      and\n      or\n      swap1\n      dup2\n      swap1\n      sstore\n        /* \"contracts/MyOperators.sol\":633:638  b * c */\n      tag_40\n      swap2\n        /* \"contracts/MyOperators.sol\":637:638  c */\n      0x010000\n      dup3\n      div\n      dup2\n      and\n      swap2\n        /* \"contracts/MyOperators.sol\":610:619  a = b * c */\n      0x0100\n        /* \"contracts/MyOperators.sol\":633:634  b */\n      swap1\n      div\n      and\n        /* \"contracts/MyOperators.sol\":633:638  b * c */\n      tag_39\n      jump\t// in\n    tag_40:\n        /* \"contracts/MyOperators.sol\":629:630  b */\n      0x00\n        /* \"contracts/MyOperators.sol\":629:638  b = b * c */\n      dup1\n      sload\n      not(0xff00)\n      and\n      0x0100\n      0xff\n      swap4\n      dup5\n      and\n      dup2\n      mul\n      swap2\n      swap1\n      swap2\n      or\n      dup1\n      dup4\n      sstore\n        /* \"contracts/MyOperators.sol\":653:654  c */\n      0x010000\n      dup2\n      div\n      dup5\n      and\n      swap4\n      0x01\n      swap3\n        /* \"contracts/MyOperators.sol\":648:654  b *= c */\n      tag_41\n      swap3\n        /* \"contracts/MyOperators.sol\":653:654  c */\n      dup7\n      swap3\n        /* \"contracts/MyOperators.sol\":648:654  b *= c */\n      swap2\n      swap1\n      div\n      and\n      tag_39\n      jump\t// in\n    tag_41:\n      swap3\n      pop\n      0x0100\n      exp\n      dup2\n      sload\n      dup2\n      0xff\n      mul\n      not\n      and\n      swap1\n      dup4\n      0xff\n      and\n      mul\n      or\n      swap1\n      sstore\n      pop\n        /* \"contracts/MyOperators.sol\":548:661  function example2() public {... */\n      jump\t// out\n        /* \"contracts/MyOperators.sol\":730:1028  function example_3() public view {... */\n    tag_17:\n        /* \"contracts/MyOperators.sol\":773:782  bool flag */\n      0x00\n        /* \"contracts/MyOperators.sol\":807:808  b */\n      dup1\n      sload\n      0xff\n      0x0100\n      dup3\n      div\n      dup2\n      and\n        /* \"contracts/MyOperators.sol\":803:804  a */\n      swap2\n      and\n        /* \"contracts/MyOperators.sol\":803:808  a < b */\n      lt\n        /* \"contracts/MyOperators.sol\":800:846  if(a < b ){... */\n      iszero\n      tag_44\n      jumpi\n      pop\n        /* \"contracts/MyOperators.sol\":831:835  true */\n      0x01\n        /* \"contracts/MyOperators.sol\":800:846  if(a < b ){... */\n    tag_44:\n        /* \"contracts/MyOperators.sol\":862:863  b */\n      sload(0x00)\n      0xff\n      0x0100\n      dup3\n      div\n      dup2\n      and\n        /* \"contracts/MyOperators.sol\":857:858  a */\n      swap2\n      and\n        /* \"contracts/MyOperators.sol\":857:863  a <= b */\n      gt\n        /* \"contracts/MyOperators.sol\":854:901  if(a <= b ){... */\n      tag_45\n      jumpi\n      pop\n        /* \"contracts/MyOperators.sol\":886:890  true */\n      0x01\n        /* \"contracts/MyOperators.sol\":854:901  if(a <= b ){... */\n    tag_45:\n        /* \"contracts/MyOperators.sol\":918:919  b */\n      sload(0x00)\n      0xff\n        /* \"contracts/MyOperators.sol\":913:914  a */\n      dup1\n      dup3\n      and\n        /* \"contracts/MyOperators.sol\":918:919  b */\n      0x0100\n      swap1\n      swap3\n      div\n      and\n        /* \"contracts/MyOperators.sol\":913:919  a == b */\n      eq\n        /* \"contracts/MyOperators.sol\":910:957  if(a == b ){... */\n      iszero\n      tag_46\n      jumpi\n      pop\n        /* \"contracts/MyOperators.sol\":942:946  true */\n      0x01\n        /* \"contracts/MyOperators.sol\":910:957  if(a == b ){... */\n    tag_46:\n        /* \"contracts/MyOperators.sol\":974:975  b */\n      sload(0x00)\n      0xff\n        /* \"contracts/MyOperators.sol\":969:970  a */\n      dup1\n      dup3\n      and\n        /* \"contracts/MyOperators.sol\":974:975  b */\n      0x0100\n      swap1\n      swap3\n      div\n      and\n        /* \"contracts/MyOperators.sol\":969:975  a != b */\n      eq\n        /* \"contracts/MyOperators.sol\":966:1013  if(a != b ){... */\n      tag_35\n      jumpi\n      pop\n        /* \"contracts/MyOperators.sol\":730:1028  function example_3() public view {... */\n      jump\t// out\n        /* \"#utility.yul\":14:218   */\n    tag_20:\n        /* \"#utility.yul\":52:55   */\n      0x00\n        /* \"#utility.yul\":88:92   */\n      0xff\n        /* \"#utility.yul\":85:86   */\n      dup3\n        /* \"#utility.yul\":81:93   */\n      and\n        /* \"#utility.yul\":120:124   */\n      0xff\n        /* \"#utility.yul\":117:118   */\n      dup5\n        /* \"#utility.yul\":113:125   */\n      and\n        /* \"#utility.yul\":155:158   */\n      dup1\n        /* \"#utility.yul\":149:153   */\n      0xff\n        /* \"#utility.yul\":145:159   */\n      sub\n        /* \"#utility.yul\":140:143   */\n      dup3\n        /* \"#utility.yul\":137:160   */\n      gt\n        /* \"#utility.yul\":134:183   */\n      iszero\n      tag_51\n      jumpi\n        /* \"#utility.yul\":163:181   */\n      tag_51\n      tag_52\n      jump\t// in\n    tag_51:\n        /* \"#utility.yul\":199:212   */\n      add\n      swap4\n        /* \"#utility.yul\":14:218   */\n      swap3\n      pop\n      pop\n      pop\n      jump\t// out\n        /* \"#utility.yul\":223:461   */\n    tag_39:\n        /* \"#utility.yul\":261:268   */\n      0x00\n        /* \"#utility.yul\":301:305   */\n      0xff\n        /* \"#utility.yul\":298:299   */\n      dup3\n        /* \"#utility.yul\":294:306   */\n      and\n        /* \"#utility.yul\":333:337   */\n      0xff\n        /* \"#utility.yul\":330:331   */\n      dup5\n        /* \"#utility.yul\":326:338   */\n      and\n        /* \"#utility.yul\":393:396   */\n      dup2\n        /* \"#utility.yul\":387:391   */\n      0xff\n        /* \"#utility.yul\":383:397   */\n      div\n        /* \"#utility.yul\":378:381   */\n      dup2\n        /* \"#utility.yul\":375:398   */\n      gt\n        /* \"#utility.yul\":368:371   */\n      dup3\n        /* \"#utility.yul\":361:372   */\n      iszero\n        /* \"#utility.yul\":354:373   */\n      iszero\n        /* \"#utility.yul\":350:399   */\n      and\n        /* \"#utility.yul\":347:422   */\n      iszero\n      tag_55\n      jumpi\n        /* \"#utility.yul\":402:420   */\n      tag_55\n      tag_52\n      jump\t// in\n    tag_55:\n        /* \"#utility.yul\":442:455   */\n      mul\n      swap4\n        /* \"#utility.yul\":223:461   */\n      swap3\n      pop\n      pop\n      pop\n      jump\t// out\n        /* \"#utility.yul\":466:644   */\n    tag_26:\n        /* \"#utility.yul\":503:506   */\n      0x00\n        /* \"#utility.yul\":547:551   */\n      0xff\n        /* \"#utility.yul\":540:545   */\n      dup3\n        /* \"#utility.yul\":536:552   */\n      and\n        /* \"#utility.yul\":571:578   */\n      dup1\n        /* \"#utility.yul\":561:602   */\n      tag_58\n      jumpi\n        /* \"#utility.yul\":582:600   */\n      tag_58\n      tag_52\n      jump\t// in\n    tag_58:\n      not(0x00)\n        /* \"#utility.yul\":618:638   */\n      add\n      swap3\n        /* \"#utility.yul\":466:644   */\n      swap2\n      pop\n      pop\n      jump\t// out\n        /* \"#utility.yul\":649:824   */\n    tag_24:\n        /* \"#utility.yul\":686:689   */\n      0x00\n        /* \"#utility.yul\":730:734   */\n      0xff\n        /* \"#utility.yul\":723:728   */\n      dup3\n        /* \"#utility.yul\":719:735   */\n      and\n        /* \"#utility.yul\":759:763   */\n      0xff\n        /* \"#utility.yul\":750:757   */\n      dup2\n        /* \"#utility.yul\":747:764   */\n      eq\n        /* \"#utility.yul\":744:787   */\n      iszero\n      tag_61\n      jumpi\n        /* \"#utility.yul\":767:785   */\n      tag_61\n      tag_52\n      jump\t// in\n    tag_61:\n        /* \"#utility.yul\":816:817   */\n      0x01\n        /* \"#utility.yul\":803:818   */\n      add\n      swap3\n        /* \"#utility.yul\":649:824   */\n      swap2\n      pop\n      pop\n      jump\t// out\n        /* \"#utility.yul\":829:1083   */\n    tag_22:\n        /* \"#utility.yul\":859:860   */\n      0x00\n        /* \"#utility.yul\":893:897   */\n      0xff\n        /* \"#utility.yul\":890:891   */\n      dup4\n        /* \"#utility.yul\":886:898   */\n      and\n        /* \"#utility.yul\":917:920   */\n      dup1\n        /* \"#utility.yul\":907:1041   */\n      tag_63\n      jumpi\n        /* \"#utility.yul\":963:973   */\n      0x4e487b71\n        /* \"#utility.yul\":958:961   */\n      0xe0\n        /* \"#utility.yul\":954:974   */\n      shl\n        /* \"#utility.yul\":951:952   */\n      0x00\n        /* \"#utility.yul\":944:975   */\n      mstore\n        /* \"#utility.yul\":998:1002   */\n      0x12\n        /* \"#utility.yul\":995:996   */\n      0x04\n        /* \"#utility.yul\":988:1003   */\n      mstore\n        /* \"#utility.yul\":1026:1030   */\n      0x24\n        /* \"#utility.yul\":1023:1024   */\n      0x00\n        /* \"#utility.yul\":1016:1031   */\n      revert\n        /* \"#utility.yul\":907:1041   */\n    tag_63:\n        /* \"#utility.yul\":1073:1076   */\n      dup1\n        /* \"#utility.yul\":1066:1070   */\n      0xff\n        /* \"#utility.yul\":1063:1064   */\n      dup5\n        /* \"#utility.yul\":1059:1071   */\n      and\n        /* \"#utility.yul\":1055:1077   */\n      mod\n        /* \"#utility.yul\":1050:1077   */\n      swap2\n      pop\n      pop\n        /* \"#utility.yul\":829:1083   */\n      swap3\n      swap2\n      pop\n      pop\n      jump\t// out\n        /* \"#utility.yul\":1088:1215   */\n    tag_52:\n        /* \"#utility.yul\":1149:1159   */\n      0x4e487b71\n        /* \"#utility.yul\":1144:1147   */\n      0xe0\n        /* \"#utility.yul\":1140:1160   */\n      shl\n        /* \"#utility.yul\":1137:1138   */\n      0x00\n        /* \"#utility.yul\":1130:1161   */\n      mstore\n        /* \"#utility.yul\":1180:1184   */\n      0x11\n        /* \"#utility.yul\":1177:1178   */\n      0x04\n        /* \"#utility.yul\":1170:1185   */\n      mstore\n        /* \"#utility.yul\":1204:1208   */\n      0x24\n        /* \"#utility.yul\":1201:1202   */\n      0x00\n        /* \"#utility.yul\":1194:1209   */\n      revert\n\n    auxdata: 0xa2646970667358221220a524e82c47f823286882bc35a79a2023c29d956aa7437b2fc570caaab201d5a264736f6c63430008070033\n}\n",
				"bytecode": {
					"linkReferences": {},
					"object": "60806040526000805462ffffff19166203020117905534801561002157600080fd5b50610403806100316000396000f3fe608060405234801561001057600080fd5b50600436106100575760003560e01c80632c7ad1611461005c5780634ab3248b14610066578063a54998a71461006e578063ce40616414610064578063eca2a02714610076575b600080fd5b61006461007e565b005b610064610114565b6100646101d9565b61006461029c565b6000546100959060ff6101008204811691166102fc565b506000546100b39060ff610100820481169162010000900416610387565b506000805460ff1690806100c683610367565b825460ff91821661010093840a90810290830219909116179092556000805491909104909116915060016100f98361034a565b91906101000a81548160ff021916908360ff16021790555050565b6000805460ff610100820481169116108015610141575060005460ff620100008204811661010090920416115b1561014a575060015b60005460ff61010082048116911610801561016c5750600054600a60ff909116115b15610175575060015b60005460ff6101008204811691161080156101a1575060005460ff620100008204811661010090920416115b806101b7575060005460ff610100820481169116105b156101c0575060015b600054640100000000900460ff166101d6575060015b50565b6000546101f09060ff6101008204811691166102fc565b6000805463ff0000001916630100000060ff93841602179081905561022391620100008204811691610100900416610321565b6000805460ff191660ff928316179081905561024d91620100008204811691610100900416610321565b6000805461ff00191661010060ff93841681029190911780835562010000810484169360019261028292869291900416610321565b92506101000a81548160ff021916908360ff160217905550565b6000805460ff61010082048116911610156102b5575060015b60005460ff610100820481169116116102cc575060015b60005460ff8082166101009092041614156102e5575060015b60005460ff80821661010090920416146101d65750565b600060ff821660ff84168060ff03821115610319576103196103b7565b019392505050565b600060ff821660ff84168160ff0481118215151615610342576103426103b7565b029392505050565b600060ff82168061035d5761035d6103b7565b6000190192915050565b600060ff821660ff81141561037e5761037e6103b7565b60010192915050565b600060ff8316806103a857634e487b7160e01b600052601260045260246000fd5b8060ff84160691505092915050565b634e487b7160e01b600052601160045260246000fdfea2646970667358221220a524e82c47f823286882bc35a79a2023c29d956aa7437b2fc570caaab201d5a264736f6c63430008070033",
					"opcodes": "PUSH1 0x80 PUSH1 0x40 MSTORE PUSH1 0x0 DUP1 SLOAD PUSH3 0xFFFFFF NOT AND PUSH3 0x30201 OR SWAP1 SSTORE CALLVALUE DUP1 ISZERO PUSH2 0x21 JUMPI PUSH1 0x0 DUP1 REVERT JUMPDEST POP PUSH2 0x403 DUP1 PUSH2 0x31 PUSH1 0x0 CODECOPY PUSH1 0x0 RETURN INVALID PUSH1 0x80 PUSH1 0x40 MSTORE CALLVALUE DUP1 ISZERO PUSH2 0x10 JUMPI PUSH1 0x0 DUP1 REVERT JUMPDEST POP PUSH1 0x4 CALLDATASIZE LT PUSH2 0x57 JUMPI PUSH1 0x0 CALLDATALOAD PUSH1 0xE0 SHR DUP1 PUSH4 0x2C7AD161 EQ PUSH2 0x5C JUMPI DUP1 PUSH4 0x4AB3248B EQ PUSH2 0x66 JUMPI DUP1 PUSH4 0xA54998A7 EQ PUSH2 0x6E JUMPI DUP1 PUSH4 0xCE406164 EQ PUSH2 0x64 JUMPI DUP1 PUSH4 0xECA2A027 EQ PUSH2 0x76 JUMPI JUMPDEST PUSH1 0x0 DUP1 REVERT JUMPDEST PUSH2 0x64 PUSH2 0x7E JUMP JUMPDEST STOP JUMPDEST PUSH2 0x64 PUSH2 0x114 JUMP JUMPDEST PUSH2 0x64 PUSH2 0x1D9 JUMP JUMPDEST PUSH2 0x64 PUSH2 0x29C JUMP JUMPDEST PUSH1 0x0 SLOAD PUSH2 0x95 SWAP1 PUSH1 0xFF PUSH2 0x100 DUP3 DIV DUP2 AND SWAP2 AND PUSH2 0x2FC JUMP JUMPDEST POP PUSH1 0x0 SLOAD PUSH2 0xB3 SWAP1 PUSH1 0xFF PUSH2 0x100 DUP3 DIV DUP2 AND SWAP2 PUSH3 0x10000 SWAP1 DIV AND PUSH2 0x387 JUMP JUMPDEST POP PUSH1 0x0 DUP1 SLOAD PUSH1 0xFF AND SWAP1 DUP1 PUSH2 0xC6 DUP4 PUSH2 0x367 JUMP JUMPDEST DUP3 SLOAD PUSH1 0xFF SWAP2 DUP3 AND PUSH2 0x100 SWAP4 DUP5 EXP SWAP1 DUP2 MUL SWAP1 DUP4 MUL NOT SWAP1 SWAP2 AND OR SWAP1 SWAP3 SSTORE PUSH1 0x0 DUP1 SLOAD SWAP2 SWAP1 SWAP2 DIV SWAP1 SWAP2 AND SWAP2 POP PUSH1 0x1 PUSH2 0xF9 DUP4 PUSH2 0x34A JUMP JUMPDEST SWAP2 SWAP1 PUSH2 0x100 EXP DUP2 SLOAD DUP2 PUSH1 0xFF MUL NOT AND SWAP1 DUP4 PUSH1 0xFF AND MUL OR SWAP1 SSTORE POP POP JUMP JUMPDEST PUSH1 0x0 DUP1 SLOAD PUSH1 0xFF PUSH2 0x100 DUP3 DIV DUP2 AND SWAP2 AND LT DUP1 ISZERO PUSH2 0x141 JUMPI POP PUSH1 0x0 SLOAD PUSH1 0xFF PUSH3 0x10000 DUP3 DIV DUP2 AND PUSH2 0x100 SWAP1 SWAP3 DIV AND GT JUMPDEST ISZERO PUSH2 0x14A JUMPI POP PUSH1 0x1 JUMPDEST PUSH1 0x0 SLOAD PUSH1 0xFF PUSH2 0x100 DUP3 DIV DUP2 AND SWAP2 AND LT DUP1 ISZERO PUSH2 0x16C JUMPI POP PUSH1 0x0 SLOAD PUSH1 0xA PUSH1 0xFF SWAP1 SWAP2 AND GT JUMPDEST ISZERO PUSH2 0x175 JUMPI POP PUSH1 0x1 JUMPDEST PUSH1 0x0 SLOAD PUSH1 0xFF PUSH2 0x100 DUP3 DIV DUP2 AND SWAP2 AND LT DUP1 ISZERO PUSH2 0x1A1 JUMPI POP PUSH1 0x0 SLOAD PUSH1 0xFF PUSH3 0x10000 DUP3 DIV DUP2 AND PUSH2 0x100 SWAP1 SWAP3 DIV AND GT JUMPDEST DUP1 PUSH2 0x1B7 JUMPI POP PUSH1 0x0 SLOAD PUSH1 0xFF PUSH2 0x100 DUP3 DIV DUP2 AND SWAP2 AND LT JUMPDEST ISZERO PUSH2 0x1C0 JUMPI POP PUSH1 0x1 JUMPDEST PUSH1 0x0 SLOAD PUSH5 0x100000000 SWAP1 DIV PUSH1 0xFF AND PUSH2 0x1D6 JUMPI POP PUSH1 0x1 JUMPDEST POP JUMP JUMPDEST PUSH1 0x0 SLOAD PUSH2 0x1F0 SWAP1 PUSH1 0xFF PUSH2 0x100 DUP3 DIV DUP2 AND SWAP2 AND PUSH2 0x2FC JUMP JUMPDEST PUSH1 0x0 DUP1 SLOAD PUSH4 0xFF000000 NOT AND PUSH4 0x1000000 PUSH1 0xFF SWAP4 DUP5 AND MUL OR SWAP1 DUP2 SWAP1 SSTORE PUSH2 0x223 SWAP2 PUSH3 0x10000 DUP3 DIV DUP2 AND SWAP2 PUSH2 0x100 SWAP1 DIV AND PUSH2 0x321 JUMP JUMPDEST PUSH1 0x0 DUP1 SLOAD PUSH1 0xFF NOT AND PUSH1 0xFF SWAP3 DUP4 AND OR SWAP1 DUP2 SWAP1 SSTORE PUSH2 0x24D SWAP2 PUSH3 0x10000 DUP3 DIV DUP2 AND SWAP2 PUSH2 0x100 SWAP1 DIV AND PUSH2 0x321 JUMP JUMPDEST PUSH1 0x0 DUP1 SLOAD PUSH2 0xFF00 NOT AND PUSH2 0x100 PUSH1 0xFF SWAP4 DUP5 AND DUP2 MUL SWAP2 SWAP1 SWAP2 OR DUP1 DUP4 SSTORE PUSH3 0x10000 DUP2 DIV DUP5 AND SWAP4 PUSH1 0x1 SWAP3 PUSH2 0x282 SWAP3 DUP7 SWAP3 SWAP2 SWAP1 DIV AND PUSH2 0x321 JUMP JUMPDEST SWAP3 POP PUSH2 0x100 EXP DUP2 SLOAD DUP2 PUSH1 0xFF MUL NOT AND SWAP1 DUP4 PUSH1 0xFF AND MUL OR SWAP1 SSTORE POP JUMP JUMPDEST PUSH1 0x0 DUP1 SLOAD PUSH1 0xFF PUSH2 0x100 DUP3 DIV DUP2 AND SWAP2 AND LT ISZERO PUSH2 0x2B5 JUMPI POP PUSH1 0x1 JUMPDEST PUSH1 0x0 SLOAD PUSH1 0xFF PUSH2 0x100 DUP3 DIV DUP2 AND SWAP2 AND GT PUSH2 0x2CC JUMPI POP PUSH1 0x1 JUMPDEST PUSH1 0x0 SLOAD PUSH1 0xFF DUP1 DUP3 AND PUSH2 0x100 SWAP1 SWAP3 DIV AND EQ ISZERO PUSH2 0x2E5 JUMPI POP PUSH1 0x1 JUMPDEST PUSH1 0x0 SLOAD PUSH1 0xFF DUP1 DUP3 AND PUSH2 0x100 SWAP1 SWAP3 DIV AND EQ PUSH2 0x1D6 JUMPI POP JUMP JUMPDEST PUSH1 0x0 PUSH1 0xFF DUP3 AND PUSH1 0xFF DUP5 AND DUP1 PUSH1 0xFF SUB DUP3 GT ISZERO PUSH2 0x319 JUMPI PUSH2 0x319 PUSH2 0x3B7 JUMP JUMPDEST ADD SWAP4 SWAP3 POP POP POP JUMP JUMPDEST PUSH1 0x0 PUSH1 0xFF DUP3 AND PUSH1 0xFF DUP5 AND DUP2 PUSH1 0xFF DIV DUP2 GT DUP3 ISZERO ISZERO AND ISZERO PUSH2 0x342 JUMPI PUSH2 0x342 PUSH2 0x3B7 JUMP JUMPDEST MUL SWAP4 SWAP3 POP POP POP JUMP JUMPDEST PUSH1 0x0 PUSH1 0xFF DUP3 AND DUP1 PUSH2 0x35D JUMPI PUSH2 0x35D PUSH2 0x3B7 JUMP JUMPDEST PUSH1 0x0 NOT ADD SWAP3 SWAP2 POP POP JUMP JUMPDEST PUSH1 0x0 PUSH1 0xFF DUP3 AND PUSH1 0xFF DUP2 EQ ISZERO PUSH2 0x37E JUMPI PUSH2 0x37E PUSH2 0x3B7 JUMP JUMPDEST PUSH1 0x1 ADD SWAP3 SWAP2 POP POP JUMP JUMPDEST PUSH1 0x0 PUSH1 0xFF DUP4 AND DUP1 PUSH2 0x3A8 JUMPI PUSH4 0x4E487B71 PUSH1 0xE0 SHL PUSH1 0x0 MSTORE PUSH1 0x12 PUSH1 0x4 MSTORE PUSH1 0x24 PUSH1 0x0 REVERT JUMPDEST DUP1 PUSH1 0xFF DUP5 AND MOD SWAP2 POP POP SWAP3 SWAP2 POP POP JUMP JUMPDEST PUSH4 0x4E487B71 PUSH1 0xE0 SHL PUSH1 0x0 MSTORE PUSH1 0x11 PUSH1 0x4 MSTORE PUSH1 0x24 PUSH1 0x0 REVERT INVALID LOG2 PUSH5 0x6970667358 0x22 SLT KECCAK256 0xA5 0x24 0xE8 0x2C SELFBALANCE 0xF8 0x23 0x28 PUSH9 0x82BC35A79A2023C29D SWAP6 PUSH11 0xA7437B2FC570CAAAB201D5 LOG2 PUSH5 0x736F6C6343 STOP ADDMOD SMOD STOP CALLER "
				},
				"gasEstimates": {
					"creation": {
						"codeDepositCost": "205400",
						"executionCost": "24475",
						"totalCost": "229875"
					},
					"external": {
						"example2()": "infinite",
						"example_1()": "57584",
						"example_3()": "8826",
						"example_4()": "17374",
						"example_5()": "164"
					}
				},
				"methodIdentifiers": {
					"example2()": "a54998a7",
					"example_1()": "2c7ad161",
					"example_3()": "eca2a027",
					"example_4()": "4ab3248b",
					"example_5()": "ce406164"
				}
			},
			"storageLayout": {
				"storage": [
					{
						"astId": 5,
						"contract": "contracts/MyOperators.sol:MyOperators",
						"label": "a",
						"offset": 0,
						"slot": "0",
						"type": "t_uint8"
					},
					{
						"astId": 8,
						"contract": "contracts/MyOperators.sol:MyOperators",
						"label": "b",
						"offset": 1,
						"slot": "0",
						"type": "t_uint8"
					},
					{
						"astId": 11,
						"contract": "contracts/MyOperators.sol:MyOperators",
						"label": "c",
						"offset": 2,
						"slot": "0",
						"type": "t_uint8"
					},
					{
						"astId": 13,
						"contract": "contracts/MyOperators.sol:MyOperators",
						"label": "result",
						"offset": 3,
						"slot": "0",
						"type": "t_uint8"
					},
					{
						"astId": 15,
						"contract": "contracts/MyOperators.sol:MyOperators",
						"label": "myBool",
						"offset": 4,
						"slot": "0",
						"type": "t_bool"
					}
				],
				"types": {
					"t_bool": {
						"encoding": "inplace",
						"label": "bool",
						"numberOfBytes": "1"
					},
					"t_uint8": {
						"encoding": "inplace",
						"label": "uint8",
						"numberOfBytes": "1"
					}
				}
			},
			"userdoc": {
				"kind": "user",
				"methods": {
					"example2()": {
						"notice": "Assignment Operators (=, +=, -=, /=, %=)"
					},
					"example_1()": {
						"notice": "Arithmetic Operators (+, -, *, /, %, ++, --)"
					},
					"example_3()": {
						"notice": "Comparison Operators (==, !=, <, <=, >,>=)"
					},
					"example_4()": {
						"notice": "Logical Operators (!, &&, ||)"
					},
					"example_5()": {
						"notice": "Conditional Operators (? A:B)"
					}
				},
				"version": 1
			}
		}
	}
}