{
	"contracts/MyVariables.sol": {
		"INeedVariables": {
			"abi": [
				{
					"inputs": [],
					"name": "myFunc",
					"outputs": [],
					"stateMutability": "view",
					"type": "function"
				},
				{
					"inputs": [],
					"name": "number",
					"outputs": [
						{
							"internalType": "uint256",
							"name": "",
							"type": "uint256"
						}
					],
					"stateMutability": "view",
					"type": "function"
				},
				{
					"inputs": [],
					"name": "theAwesomeVar",
					"outputs": [
						{
							"internalType": "uint256",
							"name": "",
							"type": "uint256"
						}
					],
					"stateMutability": "view",
					"type": "function"
				}
			],
			"devdoc": {
				"kind": "dev",
				"methods": {},
				"version": 1
			},
			"evm": {
				"assembly": "    /* \"contracts/MyVariables.sol\":613:695  contract INeedVariables is MyVariables {... */\n  mstore(0x40, 0x80)\n    /* \"contracts/MyVariables.sol\":265:267  20 */\n  0x14\n    /* \"contracts/MyVariables.sol\":241:267  uint256 public number = 20 */\n  0x00\n  sstore\n    /* \"contracts/MyVariables.sol\":306:310  true */\n  0x01\n    /* \"contracts/MyVariables.sol\":292:310  bool paused = true */\n  dup1\n  sload\n  not(0xff)\n  and\n  dup2\n  or\n  swap1\n  sstore\n    /* \"contracts/MyVariables.sol\":350:365  block.timestamp */\n  timestamp\n    /* \"contracts/MyVariables.sol\":335:365  uint256 time = block.timestamp */\n  0x02\n  sstore\n    /* \"contracts/MyVariables.sol\":689:692  100 */\n  0x64\n    /* \"contracts/MyVariables.sol\":658:692  uint256 public theAwesomeVar = 100 */\n  0x03\n  sstore\n    /* \"contracts/MyVariables.sol\":613:695  contract INeedVariables is MyVariables {... */\n  callvalue\n  dup1\n  iszero\n  tag_1\n  jumpi\n  0x00\n  dup1\n  revert\ntag_1:\n  pop\n  dataSize(sub_0)\n  dup1\n  dataOffset(sub_0)\n  0x00\n  codecopy\n  0x00\n  return\nstop\n\nsub_0: assembly {\n        /* \"contracts/MyVariables.sol\":613:695  contract INeedVariables is MyVariables {... */\n      mstore(0x40, 0x80)\n      callvalue\n      dup1\n      iszero\n      tag_1\n      jumpi\n      0x00\n      dup1\n      revert\n    tag_1:\n      pop\n      jumpi(tag_2, lt(calldatasize, 0x04))\n      shr(0xe0, calldataload(0x00))\n      dup1\n      0x7eed0172\n      eq\n      tag_3\n      jumpi\n      dup1\n      0x8381f58a\n      eq\n      tag_4\n      jumpi\n      dup1\n      0xdecfd790\n      eq\n      tag_5\n      jumpi\n    tag_2:\n      0x00\n      dup1\n      revert\n        /* \"contracts/MyVariables.sol\":415:608  function myFunc() public view {... */\n    tag_3:\n      stop\n        /* \"contracts/MyVariables.sol\":241:267  uint256 public number = 20 */\n    tag_4:\n      tag_8\n      sload(0x00)\n      dup2\n      jump\n    tag_8:\n      mload(0x40)\n        /* \"#utility.yul\":160:185   */\n      swap1\n      dup2\n      mstore\n        /* \"#utility.yul\":148:150   */\n      0x20\n        /* \"#utility.yul\":133:151   */\n      add\n        /* \"contracts/MyVariables.sol\":241:267  uint256 public number = 20 */\n      mload(0x40)\n      dup1\n      swap2\n      sub\n      swap1\n      return\n        /* \"contracts/MyVariables.sol\":658:692  uint256 public theAwesomeVar = 100 */\n    tag_5:\n      tag_8\n      sload(0x03)\n      dup2\n      jump\n\n    auxdata: 0xa2646970667358221220484799f801bb4a1f5942a605573481df13fc455f516aede0f4ceab0e3732b29864736f6c63430008070033\n}\n",
				"bytecode": {
					"linkReferences": {},
					"object": "608060405260146000556001805460ff191681179055426002556064600355348015602957600080fd5b50609b806100386000396000f3fe6080604052348015600f57600080fd5b5060043610603c5760003560e01c80637eed01721460415780638381f58a146043578063decfd79014605d575b600080fd5b005b604b60005481565b60405190815260200160405180910390f35b604b6003548156fea2646970667358221220484799f801bb4a1f5942a605573481df13fc455f516aede0f4ceab0e3732b29864736f6c63430008070033",
					"opcodes": "PUSH1 0x80 PUSH1 0x40 MSTORE PUSH1 0x14 PUSH1 0x0 SSTORE PUSH1 0x1 DUP1 SLOAD PUSH1 0xFF NOT AND DUP2 OR SWAP1 SSTORE TIMESTAMP PUSH1 0x2 SSTORE PUSH1 0x64 PUSH1 0x3 SSTORE CALLVALUE DUP1 ISZERO PUSH1 0x29 JUMPI PUSH1 0x0 DUP1 REVERT JUMPDEST POP PUSH1 0x9B DUP1 PUSH2 0x38 PUSH1 0x0 CODECOPY PUSH1 0x0 RETURN INVALID PUSH1 0x80 PUSH1 0x40 MSTORE CALLVALUE DUP1 ISZERO PUSH1 0xF JUMPI PUSH1 0x0 DUP1 REVERT JUMPDEST POP PUSH1 0x4 CALLDATASIZE LT PUSH1 0x3C JUMPI PUSH1 0x0 CALLDATALOAD PUSH1 0xE0 SHR DUP1 PUSH4 0x7EED0172 EQ PUSH1 0x41 JUMPI DUP1 PUSH4 0x8381F58A EQ PUSH1 0x43 JUMPI DUP1 PUSH4 0xDECFD790 EQ PUSH1 0x5D JUMPI JUMPDEST PUSH1 0x0 DUP1 REVERT JUMPDEST STOP JUMPDEST PUSH1 0x4B PUSH1 0x0 SLOAD DUP2 JUMP JUMPDEST PUSH1 0x40 MLOAD SWAP1 DUP2 MSTORE PUSH1 0x20 ADD PUSH1 0x40 MLOAD DUP1 SWAP2 SUB SWAP1 RETURN JUMPDEST PUSH1 0x4B PUSH1 0x3 SLOAD DUP2 JUMP INVALID LOG2 PUSH5 0x6970667358 0x22 SLT KECCAK256 BASEFEE SELFBALANCE SWAP10 0xF8 ADD 0xBB 0x4A 0x1F MSIZE TIMESTAMP 0xA6 SDIV JUMPI CALLVALUE DUP2 0xDF SGT 0xFC GASLIMIT 0x5F MLOAD PUSH11 0xEDE0F4CEAB0E3732B29864 PUSH20 0x6F6C634300080700330000000000000000000000 "
				},
				"gasEstimates": {
					"creation": {
						"codeDepositCost": "31000",
						"executionCost": "90622",
						"totalCost": "121622"
					},
					"external": {
						"myFunc()": "98",
						"number()": "2283",
						"theAwesomeVar()": "2305"
					}
				},
				"methodIdentifiers": {
					"myFunc()": "7eed0172",
					"number()": "8381f58a",
					"theAwesomeVar()": "decfd790"
				}
			},
			"storageLayout": {
				"storage": [
					{
						"astId": 5,
						"contract": "contracts/MyVariables.sol:INeedVariables",
						"label": "number",
						"offset": 0,
						"slot": "0",
						"type": "t_uint256"
					},
					{
						"astId": 8,
						"contract": "contracts/MyVariables.sol:INeedVariables",
						"label": "paused",
						"offset": 0,
						"slot": "1",
						"type": "t_bool"
					},
					{
						"astId": 12,
						"contract": "contracts/MyVariables.sol:INeedVariables",
						"label": "time",
						"offset": 0,
						"slot": "2",
						"type": "t_uint256"
					},
					{
						"astId": 22,
						"contract": "contracts/MyVariables.sol:INeedVariables",
						"label": "theAwesomeVar",
						"offset": 0,
						"slot": "3",
						"type": "t_uint256"
					}
				],
				"types": {
					"t_bool": {
						"encoding": "inplace",
						"label": "bool",
						"numberOfBytes": "1"
					},
					"t_uint256": {
						"encoding": "inplace",
						"label": "uint256",
						"numberOfBytes": "32"
					}
				}
			},
			"userdoc": {
				"kind": "user",
				"methods": {},
				"version": 1
			}
		}
	}
}