{
	"contracts/MeuContrato.sol": {
		"MeuContrato": {
			"abi": [
				{
					"inputs": [
						{
							"internalType": "string",
							"name": "_novoNome",
							"type": "string"
						}
					],
					"name": "atualizarNome",
					"outputs": [],
					"stateMutability": "nonpayable",
					"type": "function"
				},
				{
					"inputs": [],
					"name": "nome",
					"outputs": [
						{
							"internalType": "string",
							"name": "",
							"type": "string"
						}
					],
					"stateMutability": "view",
					"type": "function"
				}
			],
			"devdoc": {
				"author": "Caio Pignatari",
				"details": "Cuidado primerio contrato desenvolvido ",
				"kind": "dev",
				"methods": {},
				"title": "Contrato teste caio",
				"version": 1
			},
			"evm": {
				"assembly": "    /* \"contracts/MeuContrato.sol\":191:229  string public nome  = \"Caio Pignatari\" */\n  0xc0\n    /* \"contracts/MeuContrato.sol\":164:343  contract MeuContrato {... */\n  0x40\n    /* \"contracts/MeuContrato.sol\":191:229  string public nome  = \"Caio Pignatari\" */\n  mstore\n  0x0e\n    /* \"contracts/MeuContrato.sol\":164:343  contract MeuContrato {... */\n  0x80\n    /* \"contracts/MeuContrato.sol\":191:229  string public nome  = \"Caio Pignatari\" */\n  dup2\n  swap1\n  mstore\n  shl(0x90, 0x4361696f205069676e6174617269)\n  0xa0\n  swap1\n  dup2\n  mstore\n  tag_1\n  swap2\n  0x00\n  swap2\n  swap1\n  tag_2\n  jump\t// in\ntag_1:\n  pop\n    /* \"contracts/MeuContrato.sol\":164:343  contract MeuContrato {... */\n  callvalue\n  dup1\n  iszero\n  tag_3\n  jumpi\n  0x00\n  dup1\n  revert\ntag_3:\n  pop\n  jump(tag_16)\ntag_2:\n  dup3\n  dup1\n  sload\n  tag_5\n  swap1\n  tag_6\n  jump\t// in\ntag_5:\n  swap1\n  0x00\n  mstore\n  keccak256(0x00, 0x20)\n  swap1\n  0x1f\n  add\n  0x20\n  swap1\n  div\n  dup2\n  add\n  swap3\n  dup3\n  tag_8\n  jumpi\n  0x00\n  dup6\n  sstore\n  jump(tag_11)\ntag_8:\n  dup3\n  0x1f\n  lt\n  tag_9\n  jumpi\n  dup1\n  mload\n  not(0xff)\n  and\n  dup4\n  dup1\n  add\n  or\n  dup6\n  sstore\n  jump(tag_11)\ntag_9:\n  dup3\n  dup1\n  add\n  0x01\n  add\n  dup6\n  sstore\n  dup3\n  iszero\n  tag_11\n  jumpi\n  swap2\n  dup3\n  add\ntag_10:\n  dup3\n  dup2\n  gt\n  iszero\n  tag_11\n  jumpi\n  dup3\n  mload\n  dup3\n  sstore\n  swap2\n  0x20\n  add\n  swap2\n  swap1\n  0x01\n  add\n  swap1\n  jump(tag_10)\ntag_11:\n  pop\n  tag_12\n  swap3\n  swap2\n  pop\n  tag_13\n  jump\t// in\ntag_12:\n  pop\n  swap1\n  jump\t// out\ntag_13:\ntag_14:\n  dup1\n  dup3\n  gt\n  iszero\n  tag_12\n  jumpi\n  0x00\n  dup2\n  sstore\n  0x01\n  add\n  jump(tag_14)\n    /* \"#utility.yul\":14:394   */\ntag_6:\n    /* \"#utility.yul\":93:94   */\n  0x01\n    /* \"#utility.yul\":89:101   */\n  dup2\n  dup2\n  shr\n  swap1\n    /* \"#utility.yul\":136:148   */\n  dup3\n  and\n  dup1\n    /* \"#utility.yul\":157:218   */\n  tag_18\n  jumpi\n    /* \"#utility.yul\":211:215   */\n  0x7f\n    /* \"#utility.yul\":203:209   */\n  dup3\n    /* \"#utility.yul\":199:216   */\n  and\n    /* \"#utility.yul\":189:216   */\n  swap2\n  pop\n    /* \"#utility.yul\":157:218   */\ntag_18:\n    /* \"#utility.yul\":264:266   */\n  0x20\n    /* \"#utility.yul\":256:262   */\n  dup3\n    /* \"#utility.yul\":253:267   */\n  lt\n    /* \"#utility.yul\":233:251   */\n  dup2\n    /* \"#utility.yul\":230:268   */\n  eq\n    /* \"#utility.yul\":227:388   */\n  iszero\n  tag_19\n  jumpi\n    /* \"#utility.yul\":310:320   */\n  0x4e487b71\n    /* \"#utility.yul\":305:308   */\n  0xe0\n    /* \"#utility.yul\":301:321   */\n  shl\n    /* \"#utility.yul\":298:299   */\n  0x00\n    /* \"#utility.yul\":291:322   */\n  mstore\n    /* \"#utility.yul\":345:349   */\n  0x22\n    /* \"#utility.yul\":342:343   */\n  0x04\n    /* \"#utility.yul\":335:350   */\n  mstore\n    /* \"#utility.yul\":373:377   */\n  0x24\n    /* \"#utility.yul\":370:371   */\n  0x00\n    /* \"#utility.yul\":363:378   */\n  revert\n    /* \"#utility.yul\":227:388   */\ntag_19:\n  pop\n    /* \"#utility.yul\":14:394   */\n  swap2\n  swap1\n  pop\n  jump\t// out\ntag_16:\n    /* \"contracts/MeuContrato.sol\":164:343  contract MeuContrato {... */\n  dataSize(sub_0)\n  dup1\n  dataOffset(sub_0)\n  0x00\n  codecopy\n  0x00\n  return\nstop\n\nsub_0: assembly {\n        /* \"contracts/MeuContrato.sol\":164:343  contract MeuContrato {... */\n      mstore(0x40, 0x80)\n      callvalue\n      dup1\n      iszero\n      tag_1\n      jumpi\n      0x00\n      dup1\n      revert\n    tag_1:\n      pop\n      jumpi(tag_2, lt(calldatasize, 0x04))\n      shr(0xe0, calldataload(0x00))\n      dup1\n      0x2deb124b\n      eq\n      tag_3\n      jumpi\n      dup1\n      0x358edeef\n      eq\n      tag_4\n      jumpi\n    tag_2:\n      0x00\n      dup1\n      revert\n        /* \"contracts/MeuContrato.sol\":191:229  string public nome  = \"Caio Pignatari\" */\n    tag_3:\n      tag_5\n      tag_6\n      jump\t// in\n    tag_5:\n      mload(0x40)\n      tag_7\n      swap2\n      swap1\n      tag_8\n      jump\t// in\n    tag_7:\n      mload(0x40)\n      dup1\n      swap2\n      sub\n      swap1\n      return\n        /* \"contracts/MeuContrato.sol\":253:341  function atualizarNome(string memory _novoNome) public {... */\n    tag_4:\n      tag_9\n      tag_10\n      calldatasize\n      0x04\n      tag_11\n      jump\t// in\n    tag_10:\n      tag_12\n      jump\t// in\n    tag_9:\n      stop\n        /* \"contracts/MeuContrato.sol\":191:229  string public nome  = \"Caio Pignatari\" */\n    tag_6:\n      0x00\n      dup1\n      sload\n      tag_13\n      swap1\n      tag_14\n      jump\t// in\n    tag_13:\n      dup1\n      0x1f\n      add\n      0x20\n      dup1\n      swap2\n      div\n      mul\n      0x20\n      add\n      mload(0x40)\n      swap1\n      dup2\n      add\n      0x40\n      mstore\n      dup1\n      swap3\n      swap2\n      swap1\n      dup2\n      dup2\n      mstore\n      0x20\n      add\n      dup3\n      dup1\n      sload\n      tag_15\n      swap1\n      tag_14\n      jump\t// in\n    tag_15:\n      dup1\n      iszero\n      tag_16\n      jumpi\n      dup1\n      0x1f\n      lt\n      tag_17\n      jumpi\n      0x0100\n      dup1\n      dup4\n      sload\n      div\n      mul\n      dup4\n      mstore\n      swap2\n      0x20\n      add\n      swap2\n      jump(tag_16)\n    tag_17:\n      dup3\n      add\n      swap2\n      swap1\n      0x00\n      mstore\n      keccak256(0x00, 0x20)\n      swap1\n    tag_18:\n      dup2\n      sload\n      dup2\n      mstore\n      swap1\n      0x01\n      add\n      swap1\n      0x20\n      add\n      dup1\n      dup4\n      gt\n      tag_18\n      jumpi\n      dup3\n      swap1\n      sub\n      0x1f\n      and\n      dup3\n      add\n      swap2\n    tag_16:\n      pop\n      pop\n      pop\n      pop\n      pop\n      dup2\n      jump\t// out\n        /* \"contracts/MeuContrato.sol\":253:341  function atualizarNome(string memory _novoNome) public {... */\n    tag_12:\n        /* \"contracts/MeuContrato.sol\":318:334  nome = _novoNome */\n      dup1\n      mload\n      tag_20\n      swap1\n        /* \"contracts/MeuContrato.sol\":318:322  nome */\n      0x00\n      swap1\n        /* \"contracts/MeuContrato.sol\":318:334  nome = _novoNome */\n      0x20\n      dup5\n      add\n      swap1\n      tag_21\n      jump\t// in\n    tag_20:\n      pop\n        /* \"contracts/MeuContrato.sol\":253:341  function atualizarNome(string memory _novoNome) public {... */\n      pop\n      jump\t// out\n    tag_21:\n      dup3\n      dup1\n      sload\n      tag_22\n      swap1\n      tag_14\n      jump\t// in\n    tag_22:\n      swap1\n      0x00\n      mstore\n      keccak256(0x00, 0x20)\n      swap1\n      0x1f\n      add\n      0x20\n      swap1\n      div\n      dup2\n      add\n      swap3\n      dup3\n      tag_24\n      jumpi\n      0x00\n      dup6\n      sstore\n      jump(tag_27)\n    tag_24:\n      dup3\n      0x1f\n      lt\n      tag_25\n      jumpi\n      dup1\n      mload\n      not(0xff)\n      and\n      dup4\n      dup1\n      add\n      or\n      dup6\n      sstore\n      jump(tag_27)\n    tag_25:\n      dup3\n      dup1\n      add\n      0x01\n      add\n      dup6\n      sstore\n      dup3\n      iszero\n      tag_27\n      jumpi\n      swap2\n      dup3\n      add\n    tag_26:\n      dup3\n      dup2\n      gt\n      iszero\n      tag_27\n      jumpi\n      dup3\n      mload\n      dup3\n      sstore\n      swap2\n      0x20\n      add\n      swap2\n      swap1\n      0x01\n      add\n      swap1\n      jump(tag_26)\n    tag_27:\n      pop\n      tag_28\n      swap3\n      swap2\n      pop\n      tag_29\n      jump\t// in\n    tag_28:\n      pop\n      swap1\n      jump\t// out\n    tag_29:\n    tag_30:\n      dup1\n      dup3\n      gt\n      iszero\n      tag_28\n      jumpi\n      0x00\n      dup2\n      sstore\n      0x01\n      add\n      jump(tag_30)\n        /* \"#utility.yul\":14:936   */\n    tag_11:\n        /* \"#utility.yul\":83:89   */\n      0x00\n        /* \"#utility.yul\":136:138   */\n      0x20\n        /* \"#utility.yul\":124:133   */\n      dup3\n        /* \"#utility.yul\":115:122   */\n      dup5\n        /* \"#utility.yul\":111:134   */\n      sub\n        /* \"#utility.yul\":107:139   */\n      slt\n        /* \"#utility.yul\":104:156   */\n      iszero\n      tag_34\n      jumpi\n        /* \"#utility.yul\":152:153   */\n      0x00\n        /* \"#utility.yul\":149:150   */\n      dup1\n        /* \"#utility.yul\":142:154   */\n      revert\n        /* \"#utility.yul\":104:156   */\n    tag_34:\n        /* \"#utility.yul\":192:201   */\n      dup2\n        /* \"#utility.yul\":179:202   */\n      calldataload\n        /* \"#utility.yul\":221:239   */\n      0xffffffffffffffff\n        /* \"#utility.yul\":262:264   */\n      dup1\n        /* \"#utility.yul\":254:260   */\n      dup3\n        /* \"#utility.yul\":251:265   */\n      gt\n        /* \"#utility.yul\":248:282   */\n      iszero\n      tag_35\n      jumpi\n        /* \"#utility.yul\":278:279   */\n      0x00\n        /* \"#utility.yul\":275:276   */\n      dup1\n        /* \"#utility.yul\":268:280   */\n      revert\n        /* \"#utility.yul\":248:282   */\n    tag_35:\n        /* \"#utility.yul\":316:322   */\n      dup2\n        /* \"#utility.yul\":305:314   */\n      dup5\n        /* \"#utility.yul\":301:323   */\n      add\n        /* \"#utility.yul\":291:323   */\n      swap2\n      pop\n        /* \"#utility.yul\":361:368   */\n      dup5\n        /* \"#utility.yul\":354:358   */\n      0x1f\n        /* \"#utility.yul\":350:352   */\n      dup4\n        /* \"#utility.yul\":346:359   */\n      add\n        /* \"#utility.yul\":342:369   */\n      slt\n        /* \"#utility.yul\":332:387   */\n      tag_36\n      jumpi\n        /* \"#utility.yul\":383:384   */\n      0x00\n        /* \"#utility.yul\":380:381   */\n      dup1\n        /* \"#utility.yul\":373:385   */\n      revert\n        /* \"#utility.yul\":332:387   */\n    tag_36:\n        /* \"#utility.yul\":419:421   */\n      dup2\n        /* \"#utility.yul\":406:422   */\n      calldataload\n        /* \"#utility.yul\":441:443   */\n      dup2\n        /* \"#utility.yul\":437:439   */\n      dup2\n        /* \"#utility.yul\":434:444   */\n      gt\n        /* \"#utility.yul\":431:467   */\n      iszero\n      tag_38\n      jumpi\n        /* \"#utility.yul\":447:465   */\n      tag_38\n      tag_39\n      jump\t// in\n    tag_38:\n        /* \"#utility.yul\":522:524   */\n      0x40\n        /* \"#utility.yul\":516:525   */\n      mload\n        /* \"#utility.yul\":490:492   */\n      0x1f\n        /* \"#utility.yul\":576:589   */\n      dup3\n      add\n      not(0x1f)\n        /* \"#utility.yul\":572:594   */\n      swap1\n      dup2\n      and\n        /* \"#utility.yul\":596:598   */\n      0x3f\n        /* \"#utility.yul\":568:599   */\n      add\n        /* \"#utility.yul\":564:604   */\n      and\n        /* \"#utility.yul\":552:605   */\n      dup2\n      add\n      swap1\n        /* \"#utility.yul\":620:638   */\n      dup4\n      dup3\n      gt\n        /* \"#utility.yul\":640:662   */\n      dup2\n      dup4\n      lt\n        /* \"#utility.yul\":617:663   */\n      or\n        /* \"#utility.yul\":614:686   */\n      iszero\n      tag_41\n      jumpi\n        /* \"#utility.yul\":666:684   */\n      tag_41\n      tag_39\n      jump\t// in\n    tag_41:\n        /* \"#utility.yul\":706:716   */\n      dup2\n        /* \"#utility.yul\":702:704   */\n      0x40\n        /* \"#utility.yul\":695:717   */\n      mstore\n        /* \"#utility.yul\":741:743   */\n      dup3\n        /* \"#utility.yul\":733:739   */\n      dup2\n        /* \"#utility.yul\":726:744   */\n      mstore\n        /* \"#utility.yul\":781:788   */\n      dup8\n        /* \"#utility.yul\":776:778   */\n      0x20\n        /* \"#utility.yul\":771:773   */\n      dup5\n        /* \"#utility.yul\":767:769   */\n      dup8\n        /* \"#utility.yul\":763:774   */\n      add\n        /* \"#utility.yul\":759:779   */\n      add\n        /* \"#utility.yul\":756:789   */\n      gt\n        /* \"#utility.yul\":753:806   */\n      iszero\n      tag_42\n      jumpi\n        /* \"#utility.yul\":802:803   */\n      0x00\n        /* \"#utility.yul\":799:800   */\n      dup1\n        /* \"#utility.yul\":792:804   */\n      revert\n        /* \"#utility.yul\":753:806   */\n    tag_42:\n        /* \"#utility.yul\":858:860   */\n      dup3\n        /* \"#utility.yul\":853:855   */\n      0x20\n        /* \"#utility.yul\":849:851   */\n      dup7\n        /* \"#utility.yul\":845:856   */\n      add\n        /* \"#utility.yul\":840:842   */\n      0x20\n        /* \"#utility.yul\":832:838   */\n      dup4\n        /* \"#utility.yul\":828:843   */\n      add\n        /* \"#utility.yul\":815:861   */\n      calldatacopy\n        /* \"#utility.yul\":903:904   */\n      0x00\n        /* \"#utility.yul\":881:896   */\n      swap3\n      dup2\n      add\n        /* \"#utility.yul\":898:900   */\n      0x20\n        /* \"#utility.yul\":877:901   */\n      add\n        /* \"#utility.yul\":870:905   */\n      swap3\n      swap1\n      swap3\n      mstore\n      pop\n        /* \"#utility.yul\":885:891   */\n      swap6\n        /* \"#utility.yul\":14:936   */\n      swap5\n      pop\n      pop\n      pop\n      pop\n      pop\n      jump\t// out\n        /* \"#utility.yul\":941:1538   */\n    tag_8:\n        /* \"#utility.yul\":1053:1057   */\n      0x00\n        /* \"#utility.yul\":1082:1084   */\n      0x20\n        /* \"#utility.yul\":1111:1113   */\n      dup1\n        /* \"#utility.yul\":1100:1109   */\n      dup4\n        /* \"#utility.yul\":1093:1114   */\n      mstore\n        /* \"#utility.yul\":1143:1149   */\n      dup4\n        /* \"#utility.yul\":1137:1150   */\n      mload\n        /* \"#utility.yul\":1186:1192   */\n      dup1\n        /* \"#utility.yul\":1181:1183   */\n      dup3\n        /* \"#utility.yul\":1170:1179   */\n      dup6\n        /* \"#utility.yul\":1166:1184   */\n      add\n        /* \"#utility.yul\":1159:1193   */\n      mstore\n        /* \"#utility.yul\":1211:1212   */\n      0x00\n        /* \"#utility.yul\":1221:1361   */\n    tag_44:\n        /* \"#utility.yul\":1235:1241   */\n      dup2\n        /* \"#utility.yul\":1232:1233   */\n      dup2\n        /* \"#utility.yul\":1229:1242   */\n      lt\n        /* \"#utility.yul\":1221:1361   */\n      iszero\n      tag_46\n      jumpi\n        /* \"#utility.yul\":1330:1344   */\n      dup6\n      dup2\n      add\n        /* \"#utility.yul\":1326:1349   */\n      dup4\n      add\n        /* \"#utility.yul\":1320:1350   */\n      mload\n        /* \"#utility.yul\":1296:1313   */\n      dup6\n      dup3\n      add\n        /* \"#utility.yul\":1315:1317   */\n      0x40\n        /* \"#utility.yul\":1292:1318   */\n      add\n        /* \"#utility.yul\":1285:1351   */\n      mstore\n        /* \"#utility.yul\":1250:1260   */\n      dup3\n      add\n        /* \"#utility.yul\":1221:1361   */\n      jump(tag_44)\n    tag_46:\n        /* \"#utility.yul\":1379:1385   */\n      dup2\n        /* \"#utility.yul\":1376:1377   */\n      dup2\n        /* \"#utility.yul\":1373:1386   */\n      gt\n        /* \"#utility.yul\":1370:1461   */\n      iszero\n      tag_47\n      jumpi\n        /* \"#utility.yul\":1449:1450   */\n      0x00\n        /* \"#utility.yul\":1444:1446   */\n      0x40\n        /* \"#utility.yul\":1435:1441   */\n      dup4\n        /* \"#utility.yul\":1424:1433   */\n      dup8\n        /* \"#utility.yul\":1420:1442   */\n      add\n        /* \"#utility.yul\":1416:1447   */\n      add\n        /* \"#utility.yul\":1409:1451   */\n      mstore\n        /* \"#utility.yul\":1370:1461   */\n    tag_47:\n      pop\n        /* \"#utility.yul\":1522:1524   */\n      0x1f\n        /* \"#utility.yul\":1501:1516   */\n      add\n      not(0x1f)\n        /* \"#utility.yul\":1497:1526   */\n      and\n        /* \"#utility.yul\":1482:1527   */\n      swap3\n      swap1\n      swap3\n      add\n        /* \"#utility.yul\":1529:1531   */\n      0x40\n        /* \"#utility.yul\":1478:1532   */\n      add\n      swap4\n        /* \"#utility.yul\":941:1538   */\n      swap3\n      pop\n      pop\n      pop\n      jump\t// out\n        /* \"#utility.yul\":1543:1923   */\n    tag_14:\n        /* \"#utility.yul\":1622:1623   */\n      0x01\n        /* \"#utility.yul\":1618:1630   */\n      dup2\n      dup2\n      shr\n      swap1\n        /* \"#utility.yul\":1665:1677   */\n      dup3\n      and\n      dup1\n        /* \"#utility.yul\":1686:1747   */\n      tag_49\n      jumpi\n        /* \"#utility.yul\":1740:1744   */\n      0x7f\n        /* \"#utility.yul\":1732:1738   */\n      dup3\n        /* \"#utility.yul\":1728:1745   */\n      and\n        /* \"#utility.yul\":1718:1745   */\n      swap2\n      pop\n        /* \"#utility.yul\":1686:1747   */\n    tag_49:\n        /* \"#utility.yul\":1793:1795   */\n      0x20\n        /* \"#utility.yul\":1785:1791   */\n      dup3\n        /* \"#utility.yul\":1782:1796   */\n      lt\n        /* \"#utility.yul\":1762:1780   */\n      dup2\n        /* \"#utility.yul\":1759:1797   */\n      eq\n        /* \"#utility.yul\":1756:1917   */\n      iszero\n      tag_50\n      jumpi\n        /* \"#utility.yul\":1839:1849   */\n      0x4e487b71\n        /* \"#utility.yul\":1834:1837   */\n      0xe0\n        /* \"#utility.yul\":1830:1850   */\n      shl\n        /* \"#utility.yul\":1827:1828   */\n      0x00\n        /* \"#utility.yul\":1820:1851   */\n      mstore\n        /* \"#utility.yul\":1874:1878   */\n      0x22\n        /* \"#utility.yul\":1871:1872   */\n      0x04\n        /* \"#utility.yul\":1864:1879   */\n      mstore\n        /* \"#utility.yul\":1902:1906   */\n      0x24\n        /* \"#utility.yul\":1899:1900   */\n      0x00\n        /* \"#utility.yul\":1892:1907   */\n      revert\n        /* \"#utility.yul\":1756:1917   */\n    tag_50:\n      pop\n        /* \"#utility.yul\":1543:1923   */\n      swap2\n      swap1\n      pop\n      jump\t// out\n        /* \"#utility.yul\":1928:2055   */\n    tag_39:\n        /* \"#utility.yul\":1989:1999   */\n      0x4e487b71\n        /* \"#utility.yul\":1984:1987   */\n      0xe0\n        /* \"#utility.yul\":1980:2000   */\n      shl\n        /* \"#utility.yul\":1977:1978   */\n      0x00\n        /* \"#utility.yul\":1970:2001   */\n      mstore\n        /* \"#utility.yul\":2020:2024   */\n      0x41\n        /* \"#utility.yul\":2017:2018   */\n      0x04\n        /* \"#utility.yul\":2010:2025   */\n      mstore\n        /* \"#utility.yul\":2044:2048   */\n      0x24\n        /* \"#utility.yul\":2041:2042   */\n      0x00\n        /* \"#utility.yul\":2034:2049   */\n      revert\n\n    auxdata: 0xa264697066735822122023be30cb5da6a5e9ee2f16c40bba3256e9d31b10309e72e18d92ae051e28ec8964736f6c63430008070033\n}\n",
				"bytecode": {
					"linkReferences": {},
					"object": "60c0604052600e60808190526d4361696f205069676e617461726960901b60a090815261002f9160009190610042565b5034801561003c57600080fd5b50610116565b82805461004e906100db565b90600052602060002090601f01602090048101928261007057600085556100b6565b82601f1061008957805160ff19168380011785556100b6565b828001600101855582156100b6579182015b828111156100b657825182559160200191906001019061009b565b506100c29291506100c6565b5090565b5b808211156100c257600081556001016100c7565b600181811c908216806100ef57607f821691505b6020821081141561011057634e487b7160e01b600052602260045260246000fd5b50919050565b610339806101256000396000f3fe608060405234801561001057600080fd5b50600436106100365760003560e01c80632deb124b1461003b578063358edeef14610059575b600080fd5b61004361006e565b604051610050919061025d565b60405180910390f35b61006c6100673660046101ac565b6100fc565b005b6000805461007b906102b2565b80601f01602080910402602001604051908101604052809291908181526020018280546100a7906102b2565b80156100f45780601f106100c9576101008083540402835291602001916100f4565b820191906000526020600020905b8154815290600101906020018083116100d757829003601f168201915b505050505081565b805161010f906000906020840190610113565b5050565b82805461011f906102b2565b90600052602060002090601f0160209004810192826101415760008555610187565b82601f1061015a57805160ff1916838001178555610187565b82800160010185558215610187579182015b8281111561018757825182559160200191906001019061016c565b50610193929150610197565b5090565b5b808211156101935760008155600101610198565b6000602082840312156101be57600080fd5b813567ffffffffffffffff808211156101d657600080fd5b818401915084601f8301126101ea57600080fd5b8135818111156101fc576101fc6102ed565b604051601f8201601f19908116603f01168101908382118183101715610224576102246102ed565b8160405282815287602084870101111561023d57600080fd5b826020860160208301376000928101602001929092525095945050505050565b600060208083528351808285015260005b8181101561028a5785810183015185820160400152820161026e565b8181111561029c576000604083870101525b50601f01601f1916929092016040019392505050565b600181811c908216806102c657607f821691505b602082108114156102e757634e487b7160e01b600052602260045260246000fd5b50919050565b634e487b7160e01b600052604160045260246000fdfea264697066735822122023be30cb5da6a5e9ee2f16c40bba3256e9d31b10309e72e18d92ae051e28ec8964736f6c63430008070033",
					"opcodes": "PUSH1 0xC0 PUSH1 0x40 MSTORE PUSH1 0xE PUSH1 0x80 DUP2 SWAP1 MSTORE PUSH14 0x4361696F205069676E6174617269 PUSH1 0x90 SHL PUSH1 0xA0 SWAP1 DUP2 MSTORE PUSH2 0x2F SWAP2 PUSH1 0x0 SWAP2 SWAP1 PUSH2 0x42 JUMP JUMPDEST POP CALLVALUE DUP1 ISZERO PUSH2 0x3C JUMPI PUSH1 0x0 DUP1 REVERT JUMPDEST POP PUSH2 0x116 JUMP JUMPDEST DUP3 DUP1 SLOAD PUSH2 0x4E SWAP1 PUSH2 0xDB JUMP JUMPDEST SWAP1 PUSH1 0x0 MSTORE PUSH1 0x20 PUSH1 0x0 KECCAK256 SWAP1 PUSH1 0x1F ADD PUSH1 0x20 SWAP1 DIV DUP2 ADD SWAP3 DUP3 PUSH2 0x70 JUMPI PUSH1 0x0 DUP6 SSTORE PUSH2 0xB6 JUMP JUMPDEST DUP3 PUSH1 0x1F LT PUSH2 0x89 JUMPI DUP1 MLOAD PUSH1 0xFF NOT AND DUP4 DUP1 ADD OR DUP6 SSTORE PUSH2 0xB6 JUMP JUMPDEST DUP3 DUP1 ADD PUSH1 0x1 ADD DUP6 SSTORE DUP3 ISZERO PUSH2 0xB6 JUMPI SWAP2 DUP3 ADD JUMPDEST DUP3 DUP2 GT ISZERO PUSH2 0xB6 JUMPI DUP3 MLOAD DUP3 SSTORE SWAP2 PUSH1 0x20 ADD SWAP2 SWAP1 PUSH1 0x1 ADD SWAP1 PUSH2 0x9B JUMP JUMPDEST POP PUSH2 0xC2 SWAP3 SWAP2 POP PUSH2 0xC6 JUMP JUMPDEST POP SWAP1 JUMP JUMPDEST JUMPDEST DUP1 DUP3 GT ISZERO PUSH2 0xC2 JUMPI PUSH1 0x0 DUP2 SSTORE PUSH1 0x1 ADD PUSH2 0xC7 JUMP JUMPDEST PUSH1 0x1 DUP2 DUP2 SHR SWAP1 DUP3 AND DUP1 PUSH2 0xEF JUMPI PUSH1 0x7F DUP3 AND SWAP2 POP JUMPDEST PUSH1 0x20 DUP3 LT DUP2 EQ ISZERO PUSH2 0x110 JUMPI PUSH4 0x4E487B71 PUSH1 0xE0 SHL PUSH1 0x0 MSTORE PUSH1 0x22 PUSH1 0x4 MSTORE PUSH1 0x24 PUSH1 0x0 REVERT JUMPDEST POP SWAP2 SWAP1 POP JUMP JUMPDEST PUSH2 0x339 DUP1 PUSH2 0x125 PUSH1 0x0 CODECOPY PUSH1 0x0 RETURN INVALID PUSH1 0x80 PUSH1 0x40 MSTORE CALLVALUE DUP1 ISZERO PUSH2 0x10 JUMPI PUSH1 0x0 DUP1 REVERT JUMPDEST POP PUSH1 0x4 CALLDATASIZE LT PUSH2 0x36 JUMPI PUSH1 0x0 CALLDATALOAD PUSH1 0xE0 SHR DUP1 PUSH4 0x2DEB124B EQ PUSH2 0x3B JUMPI DUP1 PUSH4 0x358EDEEF EQ PUSH2 0x59 JUMPI JUMPDEST PUSH1 0x0 DUP1 REVERT JUMPDEST PUSH2 0x43 PUSH2 0x6E JUMP JUMPDEST PUSH1 0x40 MLOAD PUSH2 0x50 SWAP2 SWAP1 PUSH2 0x25D JUMP JUMPDEST PUSH1 0x40 MLOAD DUP1 SWAP2 SUB SWAP1 RETURN JUMPDEST PUSH2 0x6C PUSH2 0x67 CALLDATASIZE PUSH1 0x4 PUSH2 0x1AC JUMP JUMPDEST PUSH2 0xFC JUMP JUMPDEST STOP JUMPDEST PUSH1 0x0 DUP1 SLOAD PUSH2 0x7B SWAP1 PUSH2 0x2B2 JUMP JUMPDEST DUP1 PUSH1 0x1F ADD PUSH1 0x20 DUP1 SWAP2 DIV MUL PUSH1 0x20 ADD PUSH1 0x40 MLOAD SWAP1 DUP2 ADD PUSH1 0x40 MSTORE DUP1 SWAP3 SWAP2 SWAP1 DUP2 DUP2 MSTORE PUSH1 0x20 ADD DUP3 DUP1 SLOAD PUSH2 0xA7 SWAP1 PUSH2 0x2B2 JUMP JUMPDEST DUP1 ISZERO PUSH2 0xF4 JUMPI DUP1 PUSH1 0x1F LT PUSH2 0xC9 JUMPI PUSH2 0x100 DUP1 DUP4 SLOAD DIV MUL DUP4 MSTORE SWAP2 PUSH1 0x20 ADD SWAP2 PUSH2 0xF4 JUMP JUMPDEST DUP3 ADD SWAP2 SWAP1 PUSH1 0x0 MSTORE PUSH1 0x20 PUSH1 0x0 KECCAK256 SWAP1 JUMPDEST DUP2 SLOAD DUP2 MSTORE SWAP1 PUSH1 0x1 ADD SWAP1 PUSH1 0x20 ADD DUP1 DUP4 GT PUSH2 0xD7 JUMPI DUP3 SWAP1 SUB PUSH1 0x1F AND DUP3 ADD SWAP2 JUMPDEST POP POP POP POP POP DUP2 JUMP JUMPDEST DUP1 MLOAD PUSH2 0x10F SWAP1 PUSH1 0x0 SWAP1 PUSH1 0x20 DUP5 ADD SWAP1 PUSH2 0x113 JUMP JUMPDEST POP POP JUMP JUMPDEST DUP3 DUP1 SLOAD PUSH2 0x11F SWAP1 PUSH2 0x2B2 JUMP JUMPDEST SWAP1 PUSH1 0x0 MSTORE PUSH1 0x20 PUSH1 0x0 KECCAK256 SWAP1 PUSH1 0x1F ADD PUSH1 0x20 SWAP1 DIV DUP2 ADD SWAP3 DUP3 PUSH2 0x141 JUMPI PUSH1 0x0 DUP6 SSTORE PUSH2 0x187 JUMP JUMPDEST DUP3 PUSH1 0x1F LT PUSH2 0x15A JUMPI DUP1 MLOAD PUSH1 0xFF NOT AND DUP4 DUP1 ADD OR DUP6 SSTORE PUSH2 0x187 JUMP JUMPDEST DUP3 DUP1 ADD PUSH1 0x1 ADD DUP6 SSTORE DUP3 ISZERO PUSH2 0x187 JUMPI SWAP2 DUP3 ADD JUMPDEST DUP3 DUP2 GT ISZERO PUSH2 0x187 JUMPI DUP3 MLOAD DUP3 SSTORE SWAP2 PUSH1 0x20 ADD SWAP2 SWAP1 PUSH1 0x1 ADD SWAP1 PUSH2 0x16C JUMP JUMPDEST POP PUSH2 0x193 SWAP3 SWAP2 POP PUSH2 0x197 JUMP JUMPDEST POP SWAP1 JUMP JUMPDEST JUMPDEST DUP1 DUP3 GT ISZERO PUSH2 0x193 JUMPI PUSH1 0x0 DUP2 SSTORE PUSH1 0x1 ADD PUSH2 0x198 JUMP JUMPDEST PUSH1 0x0 PUSH1 0x20 DUP3 DUP5 SUB SLT ISZERO PUSH2 0x1BE JUMPI PUSH1 0x0 DUP1 REVERT JUMPDEST DUP2 CALLDATALOAD PUSH8 0xFFFFFFFFFFFFFFFF DUP1 DUP3 GT ISZERO PUSH2 0x1D6 JUMPI PUSH1 0x0 DUP1 REVERT JUMPDEST DUP2 DUP5 ADD SWAP2 POP DUP5 PUSH1 0x1F DUP4 ADD SLT PUSH2 0x1EA JUMPI PUSH1 0x0 DUP1 REVERT JUMPDEST DUP2 CALLDATALOAD DUP2 DUP2 GT ISZERO PUSH2 0x1FC JUMPI PUSH2 0x1FC PUSH2 0x2ED JUMP JUMPDEST PUSH1 0x40 MLOAD PUSH1 0x1F DUP3 ADD PUSH1 0x1F NOT SWAP1 DUP2 AND PUSH1 0x3F ADD AND DUP2 ADD SWAP1 DUP4 DUP3 GT DUP2 DUP4 LT OR ISZERO PUSH2 0x224 JUMPI PUSH2 0x224 PUSH2 0x2ED JUMP JUMPDEST DUP2 PUSH1 0x40 MSTORE DUP3 DUP2 MSTORE DUP8 PUSH1 0x20 DUP5 DUP8 ADD ADD GT ISZERO PUSH2 0x23D JUMPI PUSH1 0x0 DUP1 REVERT JUMPDEST DUP3 PUSH1 0x20 DUP7 ADD PUSH1 0x20 DUP4 ADD CALLDATACOPY PUSH1 0x0 SWAP3 DUP2 ADD PUSH1 0x20 ADD SWAP3 SWAP1 SWAP3 MSTORE POP SWAP6 SWAP5 POP POP POP POP POP JUMP JUMPDEST PUSH1 0x0 PUSH1 0x20 DUP1 DUP4 MSTORE DUP4 MLOAD DUP1 DUP3 DUP6 ADD MSTORE PUSH1 0x0 JUMPDEST DUP2 DUP2 LT ISZERO PUSH2 0x28A JUMPI DUP6 DUP2 ADD DUP4 ADD MLOAD DUP6 DUP3 ADD PUSH1 0x40 ADD MSTORE DUP3 ADD PUSH2 0x26E JUMP JUMPDEST DUP2 DUP2 GT ISZERO PUSH2 0x29C JUMPI PUSH1 0x0 PUSH1 0x40 DUP4 DUP8 ADD ADD MSTORE JUMPDEST POP PUSH1 0x1F ADD PUSH1 0x1F NOT AND SWAP3 SWAP1 SWAP3 ADD PUSH1 0x40 ADD SWAP4 SWAP3 POP POP POP JUMP JUMPDEST PUSH1 0x1 DUP2 DUP2 SHR SWAP1 DUP3 AND DUP1 PUSH2 0x2C6 JUMPI PUSH1 0x7F DUP3 AND SWAP2 POP JUMPDEST PUSH1 0x20 DUP3 LT DUP2 EQ ISZERO PUSH2 0x2E7 JUMPI PUSH4 0x4E487B71 PUSH1 0xE0 SHL PUSH1 0x0 MSTORE PUSH1 0x22 PUSH1 0x4 MSTORE PUSH1 0x24 PUSH1 0x0 REVERT JUMPDEST POP SWAP2 SWAP1 POP JUMP JUMPDEST PUSH4 0x4E487B71 PUSH1 0xE0 SHL PUSH1 0x0 MSTORE PUSH1 0x41 PUSH1 0x4 MSTORE PUSH1 0x24 PUSH1 0x0 REVERT INVALID LOG2 PUSH5 0x6970667358 0x22 SLT KECCAK256 0x23 0xBE ADDRESS 0xCB 0x5D 0xA6 0xA5 0xE9 0xEE 0x2F AND 0xC4 SIGNEXTEND 0xBA ORIGIN JUMP 0xE9 0xD3 SHL LT ADDRESS SWAP15 PUSH19 0xE18D92AE051E28EC8964736F6C634300080700 CALLER "
				},
				"gasEstimates": {
					"creation": {
						"codeDepositCost": "165000",
						"executionCost": "infinite",
						"totalCost": "infinite"
					},
					"external": {
						"atualizarNome(string)": "infinite",
						"nome()": "infinite"
					}
				},
				"methodIdentifiers": {
					"atualizarNome(string)": "358edeef",
					"nome()": "2deb124b"
				}
			},
			"storageLayout": {
				"storage": [
					{
						"astId": 5,
						"contract": "contracts/MeuContrato.sol:MeuContrato",
						"label": "nome",
						"offset": 0,
						"slot": "0",
						"type": "t_string_storage"
					}
				],
				"types": {
					"t_string_storage": {
						"encoding": "bytes",
						"label": "string",
						"numberOfBytes": "32"
					}
				}
			},
			"userdoc": {
				"kind": "user",
				"methods": {},
				"version": 1
			}
		}
	}
}