{
	"contracts/MyOperators.sol": {
		"MyOperators": {
			"abi": [
				{
					"inputs": [],
					"name": "example_1",
					"outputs": [],
					"stateMutability": "nonpayable",
					"type": "function"
				}
			],
			"devdoc": {
				"author": "Caio Pignatari",
				"details": "Cuidado segundo contrato desenvolvido ",
				"kind": "dev",
				"methods": {},
				"title": "Contrato teste caio",
				"version": 1
			},
			"evm": {
				"assembly": "    /* \"contracts/MyOperators.sol\":214:344  contract MyOperators {... */\n  mstore(0x40, 0x80)\n    /* \"contracts/MyOperators.sol\":241:252  uint8 a = 1 */\n  0x00\n  dup1\n  sload\n  not(0xffffff)\n    /* \"contracts/MyOperators.sol\":277:288  uint8 c = 3 */\n  and\n  0x030201\n  or\n  swap1\n  sstore\n    /* \"contracts/MyOperators.sol\":214:344  contract MyOperators {... */\n  callvalue\n  dup1\n  iszero\n  tag_1\n  jumpi\n  0x00\n  dup1\n  revert\ntag_1:\n  pop\n  dataSize(sub_0)\n  dup1\n  dataOffset(sub_0)\n  0x00\n  codecopy\n  0x00\n  return\nstop\n\nsub_0: assembly {\n        /* \"contracts/MyOperators.sol\":214:344  contract MyOperators {... */\n      mstore(0x40, 0x80)\n      callvalue\n      dup1\n      iszero\n      tag_1\n      jumpi\n      0x00\n      dup1\n      revert\n    tag_1:\n      pop\n      jumpi(tag_2, lt(calldatasize, 0x04))\n      shr(0xe0, calldataload(0x00))\n      dup1\n      0x2c7ad161\n      eq\n      tag_3\n      jumpi\n    tag_2:\n      0x00\n      dup1\n      revert\n        /* \"contracts/MyOperators.sol\":296:340  function example_1() public {... */\n    tag_3:\n      stop\n\n    auxdata: 0xa264697066735822122049dc795c211d6a15c594914fe9bbde48c815a059f6ed56d0293863c9a4591e6264736f6c63430008070033\n}\n",
				"bytecode": {
					"linkReferences": {},
					"object": "60806040526000805462ffffff191662030201179055348015602057600080fd5b50606580602e6000396000f3fe6080604052348015600f57600080fd5b506004361060285760003560e01c80632c7ad16114602d575b600080fd5b00fea264697066735822122049dc795c211d6a15c594914fe9bbde48c815a059f6ed56d0293863c9a4591e6264736f6c63430008070033",
					"opcodes": "PUSH1 0x80 PUSH1 0x40 MSTORE PUSH1 0x0 DUP1 SLOAD PUSH3 0xFFFFFF NOT AND PUSH3 0x30201 OR SWAP1 SSTORE CALLVALUE DUP1 ISZERO PUSH1 0x20 JUMPI PUSH1 0x0 DUP1 REVERT JUMPDEST POP PUSH1 0x65 DUP1 PUSH1 0x2E PUSH1 0x0 CODECOPY PUSH1 0x0 RETURN INVALID PUSH1 0x80 PUSH1 0x40 MSTORE CALLVALUE DUP1 ISZERO PUSH1 0xF JUMPI PUSH1 0x0 DUP1 REVERT JUMPDEST POP PUSH1 0x4 CALLDATASIZE LT PUSH1 0x28 JUMPI PUSH1 0x0 CALLDATALOAD PUSH1 0xE0 SHR DUP1 PUSH4 0x2C7AD161 EQ PUSH1 0x2D JUMPI JUMPDEST PUSH1 0x0 DUP1 REVERT JUMPDEST STOP INVALID LOG2 PUSH5 0x6970667358 0x22 SLT KECCAK256 0x49 0xDC PUSH26 0x5C211D6A15C594914FE9BBDE48C815A059F6ED56D0293863C9A4 MSIZE 0x1E PUSH3 0x64736F PUSH13 0x63430008070033000000000000 "
				},
				"gasEstimates": {
					"creation": {
						"codeDepositCost": "20200",
						"executionCost": "24299",
						"totalCost": "44499"
					},
					"external": {
						"example_1()": "98"
					}
				},
				"methodIdentifiers": {
					"example_1()": "2c7ad161"
				}
			},
			"storageLayout": {
				"storage": [
					{
						"astId": 5,
						"contract": "contracts/MyOperators.sol:MyOperators",
						"label": "a",
						"offset": 0,
						"slot": "0",
						"type": "t_uint8"
					},
					{
						"astId": 8,
						"contract": "contracts/MyOperators.sol:MyOperators",
						"label": "b",
						"offset": 1,
						"slot": "0",
						"type": "t_uint8"
					},
					{
						"astId": 11,
						"contract": "contracts/MyOperators.sol:MyOperators",
						"label": "c",
						"offset": 2,
						"slot": "0",
						"type": "t_uint8"
					}
				],
				"types": {
					"t_uint8": {
						"encoding": "inplace",
						"label": "uint8",
						"numberOfBytes": "1"
					}
				}
			},
			"userdoc": {
				"kind": "user",
				"methods": {},
				"version": 1
			}
		}
	}
}