{
	"data": {
		"bytecode": {
			"linkReferences": {},
			"object": "608060405260146000556001805460ff19168117905542600255348015602457600080fd5b506089806100336000396000f3fe6080604052348015600f57600080fd5b506004361060325760003560e01c806316ada5471460375780637eed0172146051575b600080fd5b603f60025481565b60405190815260200160405180910390f35b00fea2646970667358221220b8c80cb026580fbb8bddd62ca5513c1fe79c4d0546e3629d5d136fc454f3b77064736f6c63430008070033",
			"opcodes": "PUSH1 0x80 PUSH1 0x40 MSTORE PUSH1 0x14 PUSH1 0x0 SSTORE PUSH1 0x1 DUP1 SLOAD PUSH1 0xFF NOT AND DUP2 OR SWAP1 SSTORE TIMESTAMP PUSH1 0x2 SSTORE CALLVALUE DUP1 ISZERO PUSH1 0x24 JUMPI PUSH1 0x0 DUP1 REVERT JUMPDEST POP PUSH1 0x89 DUP1 PUSH2 0x33 PUSH1 0x0 CODECOPY PUSH1 0x0 RETURN INVALID PUSH1 0x80 PUSH1 0x40 MSTORE CALLVALUE DUP1 ISZERO PUSH1 0xF JUMPI PUSH1 0x0 DUP1 REVERT JUMPDEST POP PUSH1 0x4 CALLDATASIZE LT PUSH1 0x32 JUMPI PUSH1 0x0 CALLDATALOAD PUSH1 0xE0 SHR DUP1 PUSH4 0x16ADA547 EQ PUSH1 0x37 JUMPI DUP1 PUSH4 0x7EED0172 EQ PUSH1 0x51 JUMPI JUMPDEST PUSH1 0x0 DUP1 REVERT JUMPDEST PUSH1 0x3F PUSH1 0x2 SLOAD DUP2 JUMP JUMPDEST PUSH1 0x40 MLOAD SWAP1 DUP2 MSTORE PUSH1 0x20 ADD PUSH1 0x40 MLOAD DUP1 SWAP2 SUB SWAP1 RETURN JUMPDEST STOP INVALID LOG2 PUSH5 0x6970667358 0x22 SLT KECCAK256 0xB8 0xC8 0xC 0xB0 0x26 PC 0xF 0xBB DUP12 0xDD 0xD6 0x2C 0xA5 MLOAD EXTCODECOPY 0x1F 0xE7 SWAP13 0x4D SDIV CHAINID 0xE3 PUSH3 0x9D5D13 PUSH16 0xC454F3B77064736F6C63430008070033 "
		},
		"gasEstimates": {
			"creation": {
				"codeDepositCost": "27400",
				"executionCost": "68516",
				"totalCost": "95916"
			},
			"external": {
				"myFunc()": "120",
				"time()": "2261"
			}
		},
		"methodIdentifiers": {
			"myFunc()": "7eed0172",
			"time()": "16ada547"
		}
	},
	"abi": [
		{
			"inputs": [],
			"name": "myFunc",
			"outputs": [],
			"stateMutability": "nonpayable",
			"type": "function"
		},
		{
			"inputs": [],
			"name": "time",
			"outputs": [
				{
					"internalType": "uint256",
					"name": "",
					"type": "uint256"
				}
			],
			"stateMutability": "view",
			"type": "function"
		}
	]
}