{
	"data": {
		"bytecode": {
			"linkReferences": {},
			"object": "608060405260146000556001805460ff191681179055426002819055606460035560045534801561002f57600080fd5b5060ad8061003e6000396000f3fe6080604052348015600f57600080fd5b506004361060465760003560e01c8063154dcdf114604b5780637eed01721460655780638381f58a146067578063decfd79014606f575b600080fd5b605360045481565b60405190815260200160405180910390f35b005b605360005481565b60536003548156fea2646970667358221220103280a2630f96da8dfcf47df678f75f9d650e1ee20ed0ee6c37d50133c539f464736f6c63430008070033",
			"opcodes": "PUSH1 0x80 PUSH1 0x40 MSTORE PUSH1 0x14 PUSH1 0x0 SSTORE PUSH1 0x1 DUP1 SLOAD PUSH1 0xFF NOT AND DUP2 OR SWAP1 SSTORE TIMESTAMP PUSH1 0x2 DUP2 SWAP1 SSTORE PUSH1 0x64 PUSH1 0x3 SSTORE PUSH1 0x4 SSTORE CALLVALUE DUP1 ISZERO PUSH2 0x2F JUMPI PUSH1 0x0 DUP1 REVERT JUMPDEST POP PUSH1 0xAD DUP1 PUSH2 0x3E PUSH1 0x0 CODECOPY PUSH1 0x0 RETURN INVALID PUSH1 0x80 PUSH1 0x40 MSTORE CALLVALUE DUP1 ISZERO PUSH1 0xF JUMPI PUSH1 0x0 DUP1 REVERT JUMPDEST POP PUSH1 0x4 CALLDATASIZE LT PUSH1 0x46 JUMPI PUSH1 0x0 CALLDATALOAD PUSH1 0xE0 SHR DUP1 PUSH4 0x154DCDF1 EQ PUSH1 0x4B JUMPI DUP1 PUSH4 0x7EED0172 EQ PUSH1 0x65 JUMPI DUP1 PUSH4 0x8381F58A EQ PUSH1 0x67 JUMPI DUP1 PUSH4 0xDECFD790 EQ PUSH1 0x6F JUMPI JUMPDEST PUSH1 0x0 DUP1 REVERT JUMPDEST PUSH1 0x53 PUSH1 0x4 SLOAD DUP2 JUMP JUMPDEST PUSH1 0x40 MLOAD SWAP1 DUP2 MSTORE PUSH1 0x20 ADD PUSH1 0x40 MLOAD DUP1 SWAP2 SUB SWAP1 RETURN JUMPDEST STOP JUMPDEST PUSH1 0x53 PUSH1 0x0 SLOAD DUP2 JUMP JUMPDEST PUSH1 0x53 PUSH1 0x3 SLOAD DUP2 JUMP INVALID LOG2 PUSH5 0x6970667358 0x22 SLT KECCAK256 LT ORIGIN DUP1 LOG2 PUSH4 0xF96DA8D 0xFC DELEGATECALL PUSH30 0xF678F75F9D650E1EE20ED0EE6C37D50133C539F464736F6C634300080700 CALLER "
		},
		"gasEstimates": {
			"creation": {
				"codeDepositCost": "34600",
				"executionCost": "112737",
				"totalCost": "147337"
			},
			"external": {
				"myFunc()": "120",
				"number()": "2305",
				"theAwesomeVar()": "2327",
				"thetime()": "2261"
			}
		},
		"methodIdentifiers": {
			"myFunc()": "7eed0172",
			"number()": "8381f58a",
			"theAwesomeVar()": "decfd790",
			"thetime()": "154dcdf1"
		}
	},
	"abi": [
		{
			"inputs": [],
			"name": "myFunc",
			"outputs": [],
			"stateMutability": "view",
			"type": "function"
		},
		{
			"inputs": [],
			"name": "number",
			"outputs": [
				{
					"internalType": "uint256",
					"name": "",
					"type": "uint256"
				}
			],
			"stateMutability": "view",
			"type": "function"
		},
		{
			"inputs": [],
			"name": "theAwesomeVar",
			"outputs": [
				{
					"internalType": "uint256",
					"name": "",
					"type": "uint256"
				}
			],
			"stateMutability": "view",
			"type": "function"
		},
		{
			"inputs": [],
			"name": "thetime",
			"outputs": [
				{
					"internalType": "uint256",
					"name": "",
					"type": "uint256"
				}
			],
			"stateMutability": "view",
			"type": "function"
		}
	]
}