{
	"data": {
		"bytecode": {
			"linkReferences": {},
			"object": "60806040526000805462ffffff19166203020117905534801561002157600080fd5b50610422806100316000396000f3fe608060405234801561001057600080fd5b50600436106100575760003560e01c80632c7ad1611461005c5780634ab3248b14610066578063a54998a71461006e578063ce40616414610076578063eca2a0271461007e575b600080fd5b610064610086565b005b61006461011c565b6100646101e1565b6100646102a4565b6100646102bb565b60005461009d9060ff61010082048116911661031b565b506000546100bb9060ff6101008204811691620100009004166103a6565b506000805460ff1690806100ce83610386565b825460ff91821661010093840a908102908302199091161790925560008054919091049091169150600161010183610369565b91906101000a81548160ff021916908360ff16021790555050565b6000805460ff610100820481169116108015610149575060005460ff620100008204811661010090920416115b15610152575060015b60005460ff6101008204811691161080156101745750600054600a60ff909116115b1561017d575060015b60005460ff6101008204811691161080156101a9575060005460ff620100008204811661010090920416115b806101bf575060005460ff610100820481169116105b156101c8575060015b600054640100000000900460ff166101de575060015b50565b6000546101f89060ff61010082048116911661031b565b6000805463ff0000001916630100000060ff93841602179081905561022b91620100008204811691610100900416610340565b6000805460ff191660ff928316179081905561025591620100008204811691610100900416610340565b6000805461ff00191661010060ff93841681029190911780835562010000810484169360019261028a92869291900416610340565b92506101000a81548160ff021916908360ff160217905550565b6000805460ff610100820481169116116101de5750565b6000805460ff61010082048116911610156102d4575060015b60005460ff610100820481169116116102eb575060015b60005460ff808216610100909204161415610304575060015b60005460ff80821661010090920416146101de5750565b600060ff821660ff84168060ff03821115610338576103386103d6565b019392505050565b600060ff821660ff84168160ff0481118215151615610361576103616103d6565b029392505050565b600060ff82168061037c5761037c6103d6565b6000190192915050565b600060ff821660ff81141561039d5761039d6103d6565b60010192915050565b600060ff8316806103c757634e487b7160e01b600052601260045260246000fd5b8060ff84160691505092915050565b634e487b7160e01b600052601160045260246000fdfea2646970667358221220be6a5b6ba77338e787d0c9f0d595a3cf97f475126bddfab32130b49b4a6807b564736f6c63430008070033",
			"opcodes": "PUSH1 0x80 PUSH1 0x40 MSTORE PUSH1 0x0 DUP1 SLOAD PUSH3 0xFFFFFF NOT AND PUSH3 0x30201 OR SWAP1 SSTORE CALLVALUE DUP1 ISZERO PUSH2 0x21 JUMPI PUSH1 0x0 DUP1 REVERT JUMPDEST POP PUSH2 0x422 DUP1 PUSH2 0x31 PUSH1 0x0 CODECOPY PUSH1 0x0 RETURN INVALID PUSH1 0x80 PUSH1 0x40 MSTORE CALLVALUE DUP1 ISZERO PUSH2 0x10 JUMPI PUSH1 0x0 DUP1 REVERT JUMPDEST POP PUSH1 0x4 CALLDATASIZE LT PUSH2 0x57 JUMPI PUSH1 0x0 CALLDATALOAD PUSH1 0xE0 SHR DUP1 PUSH4 0x2C7AD161 EQ PUSH2 0x5C JUMPI DUP1 PUSH4 0x4AB3248B EQ PUSH2 0x66 JUMPI DUP1 PUSH4 0xA54998A7 EQ PUSH2 0x6E JUMPI DUP1 PUSH4 0xCE406164 EQ PUSH2 0x76 JUMPI DUP1 PUSH4 0xECA2A027 EQ PUSH2 0x7E JUMPI JUMPDEST PUSH1 0x0 DUP1 REVERT JUMPDEST PUSH2 0x64 PUSH2 0x86 JUMP JUMPDEST STOP JUMPDEST PUSH2 0x64 PUSH2 0x11C JUMP JUMPDEST PUSH2 0x64 PUSH2 0x1E1 JUMP JUMPDEST PUSH2 0x64 PUSH2 0x2A4 JUMP JUMPDEST PUSH2 0x64 PUSH2 0x2BB JUMP JUMPDEST PUSH1 0x0 SLOAD PUSH2 0x9D SWAP1 PUSH1 0xFF PUSH2 0x100 DUP3 DIV DUP2 AND SWAP2 AND PUSH2 0x31B JUMP JUMPDEST POP PUSH1 0x0 SLOAD PUSH2 0xBB SWAP1 PUSH1 0xFF PUSH2 0x100 DUP3 DIV DUP2 AND SWAP2 PUSH3 0x10000 SWAP1 DIV AND PUSH2 0x3A6 JUMP JUMPDEST POP PUSH1 0x0 DUP1 SLOAD PUSH1 0xFF AND SWAP1 DUP1 PUSH2 0xCE DUP4 PUSH2 0x386 JUMP JUMPDEST DUP3 SLOAD PUSH1 0xFF SWAP2 DUP3 AND PUSH2 0x100 SWAP4 DUP5 EXP SWAP1 DUP2 MUL SWAP1 DUP4 MUL NOT SWAP1 SWAP2 AND OR SWAP1 SWAP3 SSTORE PUSH1 0x0 DUP1 SLOAD SWAP2 SWAP1 SWAP2 DIV SWAP1 SWAP2 AND SWAP2 POP PUSH1 0x1 PUSH2 0x101 DUP4 PUSH2 0x369 JUMP JUMPDEST SWAP2 SWAP1 PUSH2 0x100 EXP DUP2 SLOAD DUP2 PUSH1 0xFF MUL NOT AND SWAP1 DUP4 PUSH1 0xFF AND MUL OR SWAP1 SSTORE POP POP JUMP JUMPDEST PUSH1 0x0 DUP1 SLOAD PUSH1 0xFF PUSH2 0x100 DUP3 DIV DUP2 AND SWAP2 AND LT DUP1 ISZERO PUSH2 0x149 JUMPI POP PUSH1 0x0 SLOAD PUSH1 0xFF PUSH3 0x10000 DUP3 DIV DUP2 AND PUSH2 0x100 SWAP1 SWAP3 DIV AND GT JUMPDEST ISZERO PUSH2 0x152 JUMPI POP PUSH1 0x1 JUMPDEST PUSH1 0x0 SLOAD PUSH1 0xFF PUSH2 0x100 DUP3 DIV DUP2 AND SWAP2 AND LT DUP1 ISZERO PUSH2 0x174 JUMPI POP PUSH1 0x0 SLOAD PUSH1 0xA PUSH1 0xFF SWAP1 SWAP2 AND GT JUMPDEST ISZERO PUSH2 0x17D JUMPI POP PUSH1 0x1 JUMPDEST PUSH1 0x0 SLOAD PUSH1 0xFF PUSH2 0x100 DUP3 DIV DUP2 AND SWAP2 AND LT DUP1 ISZERO PUSH2 0x1A9 JUMPI POP PUSH1 0x0 SLOAD PUSH1 0xFF PUSH3 0x10000 DUP3 DIV DUP2 AND PUSH2 0x100 SWAP1 SWAP3 DIV AND GT JUMPDEST DUP1 PUSH2 0x1BF JUMPI POP PUSH1 0x0 SLOAD PUSH1 0xFF PUSH2 0x100 DUP3 DIV DUP2 AND SWAP2 AND LT JUMPDEST ISZERO PUSH2 0x1C8 JUMPI POP PUSH1 0x1 JUMPDEST PUSH1 0x0 SLOAD PUSH5 0x100000000 SWAP1 DIV PUSH1 0xFF AND PUSH2 0x1DE JUMPI POP PUSH1 0x1 JUMPDEST POP JUMP JUMPDEST PUSH1 0x0 SLOAD PUSH2 0x1F8 SWAP1 PUSH1 0xFF PUSH2 0x100 DUP3 DIV DUP2 AND SWAP2 AND PUSH2 0x31B JUMP JUMPDEST PUSH1 0x0 DUP1 SLOAD PUSH4 0xFF000000 NOT AND PUSH4 0x1000000 PUSH1 0xFF SWAP4 DUP5 AND MUL OR SWAP1 DUP2 SWAP1 SSTORE PUSH2 0x22B SWAP2 PUSH3 0x10000 DUP3 DIV DUP2 AND SWAP2 PUSH2 0x100 SWAP1 DIV AND PUSH2 0x340 JUMP JUMPDEST PUSH1 0x0 DUP1 SLOAD PUSH1 0xFF NOT AND PUSH1 0xFF SWAP3 DUP4 AND OR SWAP1 DUP2 SWAP1 SSTORE PUSH2 0x255 SWAP2 PUSH3 0x10000 DUP3 DIV DUP2 AND SWAP2 PUSH2 0x100 SWAP1 DIV AND PUSH2 0x340 JUMP JUMPDEST PUSH1 0x0 DUP1 SLOAD PUSH2 0xFF00 NOT AND PUSH2 0x100 PUSH1 0xFF SWAP4 DUP5 AND DUP2 MUL SWAP2 SWAP1 SWAP2 OR DUP1 DUP4 SSTORE PUSH3 0x10000 DUP2 DIV DUP5 AND SWAP4 PUSH1 0x1 SWAP3 PUSH2 0x28A SWAP3 DUP7 SWAP3 SWAP2 SWAP1 DIV AND PUSH2 0x340 JUMP JUMPDEST SWAP3 POP PUSH2 0x100 EXP DUP2 SLOAD DUP2 PUSH1 0xFF MUL NOT AND SWAP1 DUP4 PUSH1 0xFF AND MUL OR SWAP1 SSTORE POP JUMP JUMPDEST PUSH1 0x0 DUP1 SLOAD PUSH1 0xFF PUSH2 0x100 DUP3 DIV DUP2 AND SWAP2 AND GT PUSH2 0x1DE JUMPI POP JUMP JUMPDEST PUSH1 0x0 DUP1 SLOAD PUSH1 0xFF PUSH2 0x100 DUP3 DIV DUP2 AND SWAP2 AND LT ISZERO PUSH2 0x2D4 JUMPI POP PUSH1 0x1 JUMPDEST PUSH1 0x0 SLOAD PUSH1 0xFF PUSH2 0x100 DUP3 DIV DUP2 AND SWAP2 AND GT PUSH2 0x2EB JUMPI POP PUSH1 0x1 JUMPDEST PUSH1 0x0 SLOAD PUSH1 0xFF DUP1 DUP3 AND PUSH2 0x100 SWAP1 SWAP3 DIV AND EQ ISZERO PUSH2 0x304 JUMPI POP PUSH1 0x1 JUMPDEST PUSH1 0x0 SLOAD PUSH1 0xFF DUP1 DUP3 AND PUSH2 0x100 SWAP1 SWAP3 DIV AND EQ PUSH2 0x1DE JUMPI POP JUMP JUMPDEST PUSH1 0x0 PUSH1 0xFF DUP3 AND PUSH1 0xFF DUP5 AND DUP1 PUSH1 0xFF SUB DUP3 GT ISZERO PUSH2 0x338 JUMPI PUSH2 0x338 PUSH2 0x3D6 JUMP JUMPDEST ADD SWAP4 SWAP3 POP POP POP JUMP JUMPDEST PUSH1 0x0 PUSH1 0xFF DUP3 AND PUSH1 0xFF DUP5 AND DUP2 PUSH1 0xFF DIV DUP2 GT DUP3 ISZERO ISZERO AND ISZERO PUSH2 0x361 JUMPI PUSH2 0x361 PUSH2 0x3D6 JUMP JUMPDEST MUL SWAP4 SWAP3 POP POP POP JUMP JUMPDEST PUSH1 0x0 PUSH1 0xFF DUP3 AND DUP1 PUSH2 0x37C JUMPI PUSH2 0x37C PUSH2 0x3D6 JUMP JUMPDEST PUSH1 0x0 NOT ADD SWAP3 SWAP2 POP POP JUMP JUMPDEST PUSH1 0x0 PUSH1 0xFF DUP3 AND PUSH1 0xFF DUP2 EQ ISZERO PUSH2 0x39D JUMPI PUSH2 0x39D PUSH2 0x3D6 JUMP JUMPDEST PUSH1 0x1 ADD SWAP3 SWAP2 POP POP JUMP JUMPDEST PUSH1 0x0 PUSH1 0xFF DUP4 AND DUP1 PUSH2 0x3C7 JUMPI PUSH4 0x4E487B71 PUSH1 0xE0 SHL PUSH1 0x0 MSTORE PUSH1 0x12 PUSH1 0x4 MSTORE PUSH1 0x24 PUSH1 0x0 REVERT JUMPDEST DUP1 PUSH1 0xFF DUP5 AND MOD SWAP2 POP POP SWAP3 SWAP2 POP POP JUMP JUMPDEST PUSH4 0x4E487B71 PUSH1 0xE0 SHL PUSH1 0x0 MSTORE PUSH1 0x11 PUSH1 0x4 MSTORE PUSH1 0x24 PUSH1 0x0 REVERT INVALID LOG2 PUSH5 0x6970667358 0x22 SLT KECCAK256 0xBE PUSH11 0x5B6BA77338E787D0C9F0D5 SWAP6 LOG3 0xCF SWAP8 DELEGATECALL PUSH22 0x126BDDFAB32130B49B4A6807B564736F6C6343000807 STOP CALLER "
		},
		"gasEstimates": {
			"creation": {
				"codeDepositCost": "211600",
				"executionCost": "24481",
				"totalCost": "236081"
			},
			"external": {
				"example2()": "infinite",
				"example_1()": "57584",
				"example_3()": "8826",
				"example_4()": "17374",
				"example_5()": "2339"
			}
		},
		"methodIdentifiers": {
			"example2()": "a54998a7",
			"example_1()": "2c7ad161",
			"example_3()": "eca2a027",
			"example_4()": "4ab3248b",
			"example_5()": "ce406164"
		}
	},
	"abi": [
		{
			"inputs": [],
			"name": "example2",
			"outputs": [],
			"stateMutability": "nonpayable",
			"type": "function"
		},
		{
			"inputs": [],
			"name": "example_1",
			"outputs": [],
			"stateMutability": "nonpayable",
			"type": "function"
		},
		{
			"inputs": [],
			"name": "example_3",
			"outputs": [],
			"stateMutability": "view",
			"type": "function"
		},
		{
			"inputs": [],
			"name": "example_4",
			"outputs": [],
			"stateMutability": "view",
			"type": "function"
		},
		{
			"inputs": [],
			"name": "example_5",
			"outputs": [],
			"stateMutability": "view",
			"type": "function"
		}
	]
}